:100000000C94BB000C94D8000C94D8000C94D8002D
:100010000C94D8000C94D8000C94D8000C94D80000
:100020000C94D8000C94D8000C94D8000C94D800F0
:100030000C94D8000C94D8000C94D8000C94D800E0
:100040000C94982E0C94D8000C94D8000C94D800E2
:100050000C94D8000C94D8000C94D8000C94D800C0
:100060000C94D8000C94D80007634236B79BD8A7ED
:100070001A39685618AEBAAB558C1D3CB7CC5763CD
:10008000BD6DEDFD753EF6177231BF000000803F7B
:1000900008000000BE922449123EABAAAA2ABECD97
:1000A000CCCC4C3E00000080BEABAAAAAA3E000009
:1000B0000000BF000000803F000000000008417801
:1000C000D3BB4387D1133D190E3CC3BD4282AD2B38
:1000D0003E68EC8276BED98FE1A93E4C80EFFFBE30
:1000E00001C4FF7F3F00000000004E414E494E49D1
:1000F0005459494E46CDCCCC3D0AD7233C17B7D1F5
:100100003877CC2B329595E6241FB14F0A0000209A
:10011000410000C84200401C4620BCBE4CCA1B0E19
:100120005AAEC59D740000000800020100000304DF
:10013000070000000000000000000000002500286B
:10014000002B0000000000240027002A0004040403
:100150000404040404020202020202030303030370
:10016000030102040810204080010204081020014D
:1001700002040810200011241FBECFEFD8E0DEBF1C
:10018000CDBF25E0ACE0B4E001C01D92A334B207BE
:10019000E1F714E0A0E0B1E0EEE9F1E702C005907C
:1001A0000D92AC30B107D9F70E94E22E0C94CD38F5
:1001B0000C9400003FB7F8948091110490911204C0
:1001C000A0911304B091140426B5A89B05C02F3F3D
:1001D00019F00196A11DB11D3FBFBA2FA92F982F6D
:1001E0008827BC01CD01620F711D811D911D42E068
:1001F000660F771F881F991F4A95D1F70895CF93EF
:10020000DF939927FC01EF59FE4F2491835B9E4FAA
:10021000FC0184918823C9F090E0880F991FFC01AC
:10022000ED5BFE4FA591B491FC01E75CFE4FC591DB
:10023000D49161110DC09FB7F8948C9120958223C1
:100240008C938881282328839FBFDF91CF910895C5
:10025000623051F49FB7F8943C91822F80958323AC
:100260008C93E8812E2BEFCF8FB7F894EC912E2B47
:100270002C938FBFEACF9927FC01EB5DFE4F3491A1
:10028000FC01EF59FE4F2491FC01E35BFE4FE4912A
:10029000EE23C9F0332339F0333001F1A8F43130C3
:1002A00019F1323029F1F0E0EE0FFF1FE75CFE4F4D
:1002B000A591B4918FB7F894EC91611126C0209567
:1002C0002E232C938FBF08953730A9F03830C9F012
:1002D000343049F7809180008F7D03C08091800089
:1002E0008F7780938000DFCF84B58F7784BDDBCF9D
:1002F00084B58F7DFBCF8091B0008F778093B00065
:10030000D2CF8091B0008F7DF9CF2E2BDACF8F9294
:100310009F92AF92BF92CF92DF92EF92FF926C01C9
:10032000990FEE08FF080E94DA004B015C01C1142E
:10033000D104E104F104B9F00E94DA0068197909E6
:100340008A099B09683E73408105910580F321E08D
:10035000C21AD108E108F10888EE880E83E0981EE1
:10036000A11CB11CE4CFFF90EF90DF90CF90BF9025
:10037000AF909F908F9008958F929F92AF92BF926F
:10038000CF92DF92EF92FF920F931F934801590192
:100390006A017B01DC01A65BBF4F9401A501B60198
:1003A000C70104E30E94A9352F3F3740410551059D
:1003B0006105710581059105E9F49401A501B60176
:1003C000C70100E30E94A9352F70213099F488E01D
:1003D000880E911CA11CB11CED91FC911197E80DA8
:1003E000F91D80809180A280B380C480D580E68092
:1003F000F780D3CF9401A501B601C7011F910F91DA
:10040000FF90EF90DF90CF90BF90AF909F908F9034
:100410000895CF92DF92EF92FF920F931F93CF93A5
:10042000DF93041715072607370758F0C901B801ED
:10043000DF91CF911F910F91FF90EF90DF90CF90C0
:100440000895F801DC01A00FB11FBC91A1E0B0320A
:1004500029F0C7EFCB0FC53008F0A0E068017901A3
:10046000CFEFCC1ADC0AEC0AFC0AA0FD1FC0C416B0
:10047000D506E606F70618F5BF3209F5EC01CE0FF2
:10048000DF1FA981AF32D9F468017901E2E0CE0E15
:10049000D11CE11CF11CC416D506E606F70631F0A6
:1004A000FC01EC0DFD1D20812A3019F49701860115
:1004B000B8CFFFEFCF1ADF0AEF0AFF0AECCF6801CF
:1004C0007901A3E0CA0ED11CE11CF11CC416D506AB
:1004D000E606F70608F0AACFBF3209F0A7CFE80F6B
:1004E000F91FE181EA3209F0A1CF68017901C4E086
:1004F000CC0ED11CE11CF11CC416D506E606F7068D
:10050000A9F29C012C0D3D1DF9013297E081EA32E0
:1005100031F421503109F90120812F3239F2EFEF06
:10052000CE1ADE0AEE0AFE0AE7CF4F925F926F9272
:100530007F928F929F92AF92BF92CF92DF92EF9273
:10054000FF920F931F93CF93DF938C01065B1F4F96
:10055000D801ED91FC91E40FF51F4080518062803D
:10056000738073016201BCEFCB22E894F7F877FE49
:1005700071C04A015B01EC01D301C201BF778083E6
:100580009183A283B383E3E04E225524662477242B
:10059000B701A601411451046104710409F457C064
:1005A0004A9445284628472809F054C0CE010E94A5
:1005B0009502D501C4010496A11DB11DF801208149
:1005C0003181F901E80FF91F408151816281738106
:1005D000CE010E949502F8E08F0E911CA11CB11C67
:1005E000D801ED91FC91E80DF91DB0801181B28127
:1005F000A38184809580A680E7812B2D312F4B2FFE
:100600005A2FB4018A2D9E2F04E30E94A9352F3F53
:10061000374041055105610571058105910581F45A
:100620002B2D312F4B2F5A2FB4018A2D9E2F00E3F3
:100630000E94A9352F7081E0233018F0273009F08F
:1006400080E080FF07C04B2D512F6B2F7A2FCE01FA
:100650000E949502C701B601DF91CF911F910F91C2
:10066000FF90EF90DF90CF90BF90AF909F908F90D2
:100670007F906F905F904F9008950F931F938B0121
:100680009C01037011272227332701301105210512
:10069000310551F008F1023011052105310559F0FD
:1006A0006FEF7FEFCB0104C060E170E080E090E08D
:1006B0001F910F91089522E09695879577956795FC
:1006C0002A95D1F76D5F7F4F8F4F9F4F6C7F6C5F87
:1006D0007F4F8F4F9F4FECCF68E070E080E090E05D
:1006E000E7CF8F929F92AF92BF92CF92DF92EF921D
:1006F000FF920F931F93CF93FC01480159016A01A8
:100700007B019801A501B601C70104E30E94A93548
:100710002F3F374041055105610571058105910560
:1007200099F49401A501B601C70100E30E94A9351F
:100730002F70263039F481E089288A288B2881F4AB
:1007400080E00EC02530C9F4C1E020E030E0A9010E
:10075000C501B4010E947131811101C0C0E08C2F2C
:100760008170CF911F910F91FF90EF90DF90CF900C
:10077000BF90AF909F908F9008952223E9F027308B
:10078000D9F02230E9F6E65BFF4F80819181880E37
:10079000991EF401408151816281738182E07695D6
:1007A0006795579547958A95D1F781E04130510576
:1007B00061057105A9F6C4CF81E0D2CF8F359105CF
:1007C00069F08432910551F08F7D8154910921E0C7
:1007D0004A9708F020E0822F8170089581E0FCCFD5
:1007E000982F80ED890F8A3070F08FE9890F86305D
:1007F00018F489EA890F08958FEB890F863010F479
:1008000089ECF8CF80E00895CF93DF93CDB7DEB7C2
:1008100028970FB6F894DEBF0FBECDBF9B011D8297
:100820001E821F821886AB01BC0149835A836B83E9
:100830007C833A814B815C817E8160E08F819885E9
:1008400028960FB6F894DEBF0FBECDBFDF91CF91D3
:1008500008952617370759F4BA01A9010E94C43533
:1008600021E0892B09F020E0822F8170089580E03B
:10087000FCCFCF92DF92EF92FF920F931F93CF9313
:10088000DF93F901C080D180E280F3808601C41635
:10089000D506E606F706E0F4DC01AC0DBD1D3C9183
:1008A000A32F032E000CBB0BAF35B10509F440C0DC
:1008B000A432B10509F43CC03F7D31543A3108F40B
:1008C00037C0D09731E01A9708F030E030FD26C0ED
:1008D000DC01EC91E256E83108F0C1C1EC010E2ECA
:1008E000000CFF0BEA58FB4F0C9488359A04AF04B8
:1008F000E404FB0408052F062F0633052F062F06F8
:1009000054052F0661052F062F062F06780585054D
:100910009205C705D405EB052F0601062FEFC21A75
:10092000D20AE20AF20AC082D182E282F382AACF1C
:1009300031E0CCCF9801AC0165E070E089E491E052
:100940000E942904882309F48AC182E3DF91CF91B0
:100950001F910F91FF90EF90DF90CF900895980135
:10096000AC0165E070E08FE491E00E942904811100
:1009700054C19801AE0164E070E085E591E00E9409
:10098000290481114CC19801AE0165E070E08AE54F
:1009900091E00E942904811144C19801AE0165E0F3
:1009A00070E080E691E00E94290481113CC1980129
:1009B000AE0168E070E086E691E00E942904882399
:1009C00009F44DC187E3C2CF9801AC0162E070E049
:1009D0008FE691E00E942904811127C19801AE01A0
:1009E00067E070E082E791E00E942904882309F41F
:1009F00036C188E3ABCF9801AC0164E070E08AE7D0
:100A000091E00E942904882309F429C18BE39ECF39
:100A10009801AC0163E070E08FE791E00E94290447
:100A2000811105C19801AE0168E070E085E292E0B5
:100A30000E9429048111FDC09801AE0167E070E0B9
:100A400083E891E00E9429048111F5C09801AE016C
:100A500065E070E08BE891E00E942904882309F4A6
:100A6000FEC081E573CF9801AC0162E070E081E9DE
:100A700091E00E9429048111E0C09801AE0162E07A
:100A800070E084E991E00E9429048111D8C09801A6
:100A9000AE016AE070E087E991E00E9429048823B2
:100AA00009F4DDC081E452CF9801AC0163E070E04D
:100AB00082EA91E00E942904882309F4D0C082E4EC
:100AC00045CF9801AC0163E070E086EA91E00E94B6
:100AD00029048111B6C09801AE0164E070E08AEA91
:100AE00091E00E942904882309F4B9C08FE42ECF35
:100AF0009801AC0166E070E08FEA91E00E94290461
:100B0000882309F4ACC084E421CF9801AC0166E0ED
:100B100070E086EB91E00E942904882309F49FC0CD
:100B200085E414CF9801AC0163E070E08DEB91E0B7
:100B30000E942904811187C09801AE0164E070E031
:100B400081EC91E00E94290481117FC09801AE01DF
:100B500065E070E086EC91E00E942904811177C085
:100B60009801AE0164E070E08CEC91E00E942904F1
:100B700081116FC09801AE0166E070E081ED91E0F7
:100B80000E942904882309F46AC08AE6DFCE98010E
:100B9000AC0169E070E088ED91E00E9429048823AF
:100BA00009F45DC08EE4D2CE9801AC0163E070E040
:100BB00082EE91E00E94290481114DC09801AE019E
:100BC00064E070E086EE91E00E942904882309F435
:100BD00046C08AE4BBCE9801AC0165E070E08BEEC4
:100BE00091E00E942904811138C09801AE0164E0AF
:100BF00070E081EF91E00E942904882381F18CE468
:100C0000A5CE9801AC0165E070E086EF91E00E940E
:100C10002904882321F18DE499CE85E397CE83E3DF
:100C200095CE84E393CE86E391CE8AE38FCE8DE397
:100C30008DCE8EE38BCE8CE389CE8FE387CE80E49E
:100C400085CE83E483CE88E481CE86E47FCE87E4BC
:100C50007DCE80E57BCE89E479CE8BE477CE82E0D1
:100C600075CE4F925F926F927F928F929F92AF92CA
:100C7000BF92CF92DF92EF92FF920F931F93CF9389
:100C8000DF93FC01E65BFF4FC081D181FE01E00FE5
:100C9000F11F80809180A280B3802CEF8222805B44
:100CA0009F4FFC01408051806280738084149504C2
:100CB000A604B70408F048C081149104A104B1044B
:100CC00099F4C501B401DF91CF911F910F91FF906D
:100CD000EF90DF90CF90BF90AF909F908F907F90DC
:100CE0006F905F904F900895D501C4010496A11DA7
:100CF000B11D8C0F9D1FFC0140815181FE01E40F4D
:100D0000F51F80819181A281B38122E0B695A795DC
:100D1000979587952A95D1F70197A109B1094C5F5D
:100D20005F4F4C0F5D1F9C01B601C7010E94290453
:100D30008111C7CFFE01E80DF91D80809180A2804E
:100D4000B380FCEF8F22B2CF812C912C5401B9CF0C
:100D50002F923F924F925F926F927F928F929F92CB
:100D6000AF92BF92CF92DF92EF92FF920F931F93B9
:100D7000CF93DF9300D000D0CDB7DEB77C01FC016C
:100D800016A242A453A464A475A4C080D18006A571
:100D900017A520A931A9B301A201C6010E94090229
:100DA0004B015C01F70186A697A6A0AAB1AA82AA68
:100DB00093AAA4AAB5AA16AA17AA10AE11AE8414B3
:100DC0009504A604B704C8F081E086A30F900F90A5
:100DD0000F900F90DF91CF911F910F91FF90EF90A7
:100DE000DF90CF90BF90AF909F908F907F906F904B
:100DF0005F904F903F902F900895C60ED71EF6013A
:100E000080818F3209F456C10CF078C0883209F421
:100E1000E8C00CF050C0853209F45EC1E4F48132C0
:100E200009F4EBC08232E1F0082E000C990B0E940D
:100E3000DE03882309F422C2B301A201481959092B
:100E40006A097B0997012A5C3F4FC6010E94390459
:100E5000F70186A3B1C0863209F450C1873221F769
:100E600081E090E0A0E0B0E0F70186AB97ABA0AFE7
:100E7000B1AF86A997A9A0ADB1ADB501A401480F46
:100E8000591F6A1F7B1F9601280F391F3C832B8334
:100E9000F9012080F6013080441555056605770577
:100EA00008F0CBC13210A4C124E0F70126A30196BB
:100EB000A11DB11D7DC08B3209F4E0C0C4F489329C
:100EC00009F491C08A3209F0AFCFFFEF8F1A9F0A61
:100ED000AF0ABF0A84149504A604B70408F0E8C05A
:100EE000F60181818A3209F0DFC08DE6BAC08D3209
:100EF00009F4A8C00CF47FC084E654C08E3309F412
:100F000050C15CF58A3309F46AC00CF499C18C3382
:100F100009F422C10CF46DC0D501C4010196A11DD4
:100F2000B11D84159505A605B70508F013C181818B
:100F30008D3309F00FC1F2E08F0E911CA11CB11C82
:100F400084149504A604B70408F004C1F601828154
:100F50008D3309F0FFC08AE76CC08B3709F445C0B8
:100F6000BCF48F33F1F08E3509F05ECFFFEF8F1AAE
:100F70009F0AAF0ABF0A84149504A604B70408F0B8
:100F800035C1F60181818D3309F030C18DE869C02A
:100F90008D3769F10CF4C8C08E3709F045CF89E66A
:100FA00001C082E8F70186A381E090E0A0E0B0E014
:100FB00086AB97ABA0AFB1AFF70182A993A9A4A963
:100FC000B5A946A957A960AD71AD840F951FA61F9D
:100FD000B71F86A797A7A0ABB1AB86A1F7CE81E8D4
:100FE000E1CF86E0DFCF87E0DDCF88E0DBCF89E0AF
:100FF000D9CF85E0D7CF8FE8D5CFD501C4010196F1
:10100000A11DB11D84159505A605B705C8F48181FC
:101010008D33B1F4F2E08F0E911CA11CB11C84142D
:101020009504A604B70460F4F60182818D3341F47F
:101030008BE7F70186A383E090E0A0E0B0E0B8CFB3
:1010400088E6B0CFFFEF8F1A9F0AAF0ABF0A841459
:101050009504A604B70480F4F60181818D3241F431
:1010600087E6F70186A382E090E0A0E0B0E0A0CFA1
:101070008D3311F485E8F5CF82E794CFFFEF8F1A17
:101080009F0AAF0ABF0A84149504A604B70450F45B
:10109000F60181818B3211F486E6E3CF8D3311F4B2
:1010A00084E8DFCF81E77ECF8D3311F486E8D9CF96
:1010B0008EE678CFFFEF8F1A9F0AAF0ABF0A84141B
:1010C0009504A604B70430F4F60181818D3311F440
:1010D00087E8C7CF8FE666CFFFEF8F1A9F0AAF0A68
:1010E000BF0A84149504A604B70430F4F601818184
:1010F0008D3311F488E8B5CF80E754CFFFEF8F1A16
:101100009F0AAF0ABF0A84149504A604B70450F4DA
:10111000F6018181863211F48FE7A3CF8D3311F46C
:101120008CE89FCF8CE73ECFFFEF8F1A9F0AAF0A64
:10113000BF0A84149504A604B70450F4F601818113
:101140008C3711F480E88DCF8D3311F48EE889CF80
:101150008EE728CF83E826CFD501C4010196A11DD3
:10116000B11D84159505A605B705C8F481818C339A
:1011700091F4F2E08F0E911CA11CB11C8414950413
:10118000A604B70430F4F60182818D3311F489E8A6
:1011900050CF83E766CF8D3311F487E762CF86E7C0
:1011A00001CFD501C4010196A11DB11D841595057E
:1011B000A605B705C8F481818E3391F4F2E08F0E55
:1011C000911CA11CB11C84149504A604B70430F42E
:1011D000F60182818D3311F48AE82BCF84E741CF69
:1011E0008D3311F489E73DCF88E7DCCE8DE7DACE89
:1011F000FCE521E02F121AC08A019B010E5F1F4FF0
:101200002F4F3F4F4016510662067306B0F0EB8138
:10121000FC812181283779F44C5F5F4F6F4F7F4FFE
:10122000441655066606770640F024E0820F911DAD
:10123000A11DB11D19CE22E0F9CF2310BDCE34CEB1
:10124000BE016F5F7F4FC6010E9400300E94040400
:10125000F70122AFFA963183428353836483758307
:101260008683978383E0F70186A389819A818C190D
:101270009D09092E000CAA0BBB0B9ACE80E0E8CD8D
:101280000F931F93CF93DF93CDB7DEB70F811885F0
:101290006CEF71E0C80102960E94E3359E01255F64
:1012A0003F4F49855A856DE170E0C80109960E945B
:1012B0001A36F80115A282A593A5A4A5B5A586A7FF
:1012C00097A7A0ABB1AB81E086A320E030E040E07F
:1012D00050E060E070E089EF9FE7DF91CF911F91D0
:1012E0000F9108952F923F924F925F926F927F924B
:1012F0008F929F92AF92BF92CF92DF92EF92FF9226
:101300000F931F93CF93DF9300D000D01F92CDB7E0
:10131000DEB74A015B0118010C5F1F4FFC01E05B67
:10132000FF4FC080D180E280F3802801712C612CB6
:1013300043E0440E511C611C711C5CEF4522662485
:1013400077244C0C5D1C6E1C7F1CDC01A45BBF4F22
:101350004D915D916D917C9144155505660577051C
:1013600050F524E032E03F932F939F938F930E9498
:1013700040092D833983B42F0F900F900F900F9059
:101380002D8139814B2F0F900F900F900F900F9060
:10139000DF91CF911F910F91FF90EF90DF90CF9051
:1013A000BF90AF909F908F907F906F905F904F9085
:1013B0003F902F90089540825182628273825FEF46
:1013C000C516D506E506F50661F23C016AE4660E2F
:1013D000711CD301ED91FC911197EC0DFD1D8082E4
:1013E0009182A282B3822115310559F08D919C9191
:1013F000A101B90196012C5F3F4F820F931F0E94FC
:10140000D135D501C40183709927AA27BB2702973C
:10141000A105B10541F4D301ED91FC91E00FF11F5D
:10142000EC0DFD1D1082282D237030E040E050E0CF
:1014300060E070E080E090E000E30E948E352D8354
:101440003983B42FA52FF62FE72F97018601FD8052
:10145000FC28FD82F980F12AF982B22B5A2F532BF6
:101460006F2F7E2F806F9F678BCFEF92FF920F932E
:101470001F93CF93DF9300D000D0CDB7DEB77C01B0
:1014800022E4E20EF11CF7014081518162817381F7
:1014900049835A836B837C8304E010E09E012F5FB5
:1014A0003F4F40E050E0BA010E947209F7012083EB
:1014B00031834283538364837583868397830F903C
:1014C0000F900F900F90DF91CF911F910F91FF9090
:1014D000EF9008956F927F928F929F92AF92BF92FA
:1014E000CF92DF92EF92FF920F931F93CF93DF93F0
:1014F000CDB7DEB764970FB6F894DEBF0FBECDBF91
:101500000D871E872F87388B498B5A8B6B8B7C8B73
:101510001DA1BEA1AFA178A569A55AA53BA52CA583
:10152000FC01E65BFF4F0190F081E02DED84FE842D
:10153000EE0DFF1DC080D180E280F38034018982EE
:101540007A82AB82BC821D83BE83AF837887698732
:101550005A873B872C87DC01A05BBF4F4D915D9183
:101560006D917C914083518362837383B701A6019F
:101570004C7F41600CE010E09E012F5F3F4F0E94C6
:10158000720964960FB6F894DEBF0FBECDBFDF912F
:10159000CF911F910F91FF90EF90DF90CF90BF9070
:1015A000AF909F908F907F906F9008950F931F93AF
:1015B0009B018A010F5F1F4FA801440F551F440F65
:1015C000551F426070E060E00E9472091F910F9108
:1015D0000895EF92FF920F931F93CF93DF93CDB7B0
:1015E000DEB7C054D1090FB6F894DEBF0FBECDBF31
:1015F0007C017F936F935F934F9388E092E09F937A
:101600008F931F9280E48F938E010F5F1F4F1F9364
:101610000F930E94EA35AC01B801C7010E94D60AB7
:101620000FB6F894DEBF0FBECDBF60E070E087EF6D
:101630009FE7C05CDF4F0FB6F894DEBF0FBECDBF93
:10164000DF91CF911F910F91FF90EF9008952F920E
:101650003F924F925F926F927F928F929F92AF9242
:10166000BF92CF92DF92EF92FF920F931F93CF938F
:10167000DF9300D0CDB7DEB73C0119012A016983A1
:101680007A83B701FF88E88CD98CCA8CBB8CAC8C70
:101690009D8C8E8CFB0101900020E9F73197AF0102
:1016A000461B570B0E94D60A8F929F92AF92BF9211
:1016B000CF92DF92EF92FF9249015A016B017C01B8
:1016C0009101A20169817A81C3010E946A0A0FB661
:1016D000F894DEBF0FBECDBF0F900F90DF91CF917A
:1016E0001F910F91FF90EF90DF90CF90BF90AF9040
:1016F0009F908F907F906F905F904F903F902F9032
:1017000008952F923F924F925F926F927F928F92A5
:101710009F92AF92BF92CF92DF92EF92FF920F9380
:101720001F93CF93DF93CDB7DEB7CA56D1090FB65B
:10173000F894DEBF0FBECDBF1C012A966FAF2A976B
:101740002701380149015A01C158DF4F2881CF577D
:10175000D04022962FAF2297C058DF4F3881C05813
:10176000D0402C963FAF2C97CF57DF4FC880C15841
:10177000D040CE57DF4FD880C258D040CD57DF4F32
:10178000E880C358D040CC57DF4FF880C458D040D1
:10179000CB57DF4F4881C558D04060964FAF609718
:1017A000CA57DF4F5881C658D04062965FAF6297E4
:1017B00082019301A401B5010E94BC0129AF3AAF97
:1017C0004BAF5CAF6DAF7EAF8FAF21969FAF2197D0
:1017D00022960FAD22972C961FAD2C979601A7014C
:1017E00060966FAD609762967FAD6297C1010E946F
:1017F000BC0122962FAF229723963FAF23972496C2
:101800004FAF249725965FAF259726966FAF269703
:1018100027967FAF279728968FAF289729969FAF57
:1018200029972A968FAD2A9783588C3010F00C9404
:10183000ED179201A301B401C50104E30E94A9358B
:101840002F3F37404105510561057105810591051F
:1018500061F49201A301B401C50100E30E94A9351E
:101860002F70213011F40C94AC1781E192E09F931A
:101870008F933F922F920E94400929AF3AAF4BAF0E
:101880005CAF6DAF7EAF8FAF21969FAF21970F906A
:101890000F900F900F9076C009AD1AAD2BAD3CADF7
:1018A0004DAD5EAD6FAD21967FAD2197C1010E9418
:1018B000710330E020E08823E9F022960FAD2297F3
:1018C00023961FAD239724962FAD249725963FADE1
:1018D000259726964FAD269727965FAD2797289692
:1018E0006FAD289729967FAD2997C1010E9471039A
:1018F000282F30E0932F990F990B29AF3AAF9BAF68
:101900009CAF9DAF9EAFB92FB66FBFAF9F672196BB
:101910009FAF219737C009AD1AAD2BAD3CAD4DAD92
:101920005EAD6FAD21967FAD2197C1010E9471031D
:1019300081110C94631722960FAD229723961FAD49
:10194000239724962FAD249725963FAD259726966D
:101950004FAD269727965FAD279728966FAD2897AE
:1019600029967FAD2997C1010E94710389AF1AAEF4
:101970001BAE1CAE1DAE1EAEE6EFEFAFFFE721962D
:10198000FFAF219729AD3AAD4BAD5CAD6DAD7EADEE
:101990008FAD21969FAD2197C659DF4F0FB6F894B2
:1019A000DEBF0FBECDBFDF91CF911F910F91FF9092
:1019B000EF90DF90CF90BF90AF909F908F907F90EF
:1019C0006F905F904F903F902F90089525E00C947A
:1019D000741929AD3AAD4BAD5CAD6DAD7EAD8FAD3B
:1019E00021969FAD219704E30E94A9352F3F3740F0
:1019F00041055105610571058105910581F429AD08
:101A00003AAD4BAD5CAD6DAD7EAD8FAD21969FAD6A
:101A1000219700E30E94A9352F70273019F089E142
:101A200092E025CF22962FAD229723963FAD2397A4
:101A300024964FAD249725965FAD259726966FADDA
:101A4000269727967FAD279728968FAD28972996BA
:101A50009FAD299704E30E94A9352F3F37404105E8
:101A600051056105710581059105F1F422962FADAF
:101A7000229723963FAD239724964FAD2497259622
:101A80005FAD259726966FAD269727967FAD279752
:101A900028968FAD289729969FAD299700E30E943D
:101AA000A9352F70283019F08EE292E0E0CEF101D6
:101AB000E65BFF4F60817181E9ADFAADE60FF71F7C
:101AC00080819181A281B381E2E0B695A795979537
:101AD0008795EA95D1F79C01AD0121503109410963
:101AE000510965962CAF3DAF4EAF5FAF659789AD9D
:101AF0009AADABADBCAD0496A11DB11DAB01480FB5
:101B0000591F2B965FAF4EAF2B97D1010D90BC9113
:101B1000A02D6F96BFAFAEAF6F97D1019A962D9162
:101B20003D914D915C919D97A5962CAF3DAF4EAFE9
:101B30005FAFA5979E962D913D914D915C91D19768
:101B4000A9962CAF3DAF4EAF5FAFA99725968CAD50
:101B50009DADAEADBFAD2597BB276F96EEADFFAD8A
:101B60006F97E80FF91FD1011196FC93EE9322961F
:101B70002FAD229723963FAD239724964FAD249700
:101B800025965FAD259726966FAD269727967FAD54
:101B9000279728968FAD289729969FAD299708E11A
:101BA0000E94A9354901BA01A40177279A964D935D
:101BB0005D936D937C939D9700E010E09801CF01B9
:101BC0000E940902F10166A777A780AB91ABF6A14D
:101BD000AA96FFAFAA97D1019796BC91AB96BFAFDB
:101BE000AB972B96EEADFFAD2B97208163964EAD54
:101BF0005FAD639723965FAF4EAF2397283209F40A
:101C000049C391E080E0243609F090E02C969FAF24
:101C10002C972D968FAF2D97CE0101963C012B96D8
:101C2000AEADBFAD2B9711966196BFAFAEAF6197CA
:101C300044244394512CF101E65BFF4F6D96FFAFB6
:101C4000EEAF6D9792012150310967963FAF2EAFED
:101C50006797D1019E968D919D910D90BC91A02D7D
:101C60006B968CAF9DAFAEAFBFAF6B97F101C2A4C7
:101C7000D3A4E4A4F5A423962EAD3FAD239742163A
:101C8000530664F46196AEADBFAD61978C9180341C
:101C900029F0B7E04B16510409F05CC063962EADF5
:101CA0003FAD639724193509F90131976796FFAF66
:101CB000EEAF6797C20101962B962EAD3FAD2B97E5
:101CC000280F391F23963FAF2EAF2397B12CA12C9D
:101CD00010E000E0612C712C812C912C60961FAEDD
:101CE000609762961FAE62976796EEADFFAD6797FD
:101CF000AE16BF060CF48FC16B962CAD3DAD4EAD4C
:101D00005FAD6B978AE492E0C216D306E406F5064F
:101D100061F42B96EEADFFAD2B97E40DF51D8081A0
:101D2000803409F4A2C183E592E09F938F933F92A0
:101D30002F920E94400929AF3AAF4BAF5CAF6DAF15
:101D40007EAF8FAF21969FAF21970F900F900F908E
:101D50000F90A4C06B960CAD1DAD2EAD3FAD6B9733
:101D6000B701A601D1018D919C910E940902F10158
:101D700066A777A780AB91AB6C157D058E059F0597
:101D800018F05F924F9272C047E06FE8C1010E9465
:101D9000A11989019A01AB01BC01C1010E94BC01DA
:101DA00049015A016B017C016196AEADBFAD6197EF
:101DB000ED916196BFAFAEAF6197E43611F0EA36B0
:101DC00091F481E090E0042C02C0880F991F0A94DE
:101DD000E2F72D962EAD3FAD2D97282B392B2D9662
:101DE0003FAF2EAF2D979401A501B601C70104E3C3
:101DF0000E94A935E2562F3F374041055105610544
:101E000071058105910511F00C948E179401A501BF
:101E1000B601C70100E30E94A9352F70E43108F034
:101E20002EC20E2E000CFF0BE85EF04F0C9488358E
:101E3000B60F3F112C0F3F113F113F113F11BE0F45
:101E4000E60F3F113F11FD0F3F113F11DE0F3F1114
:101E50003F11CD0F3F110110253009F44BC067969B
:101E60008EAD9FAD679701969F938F9387E392E026
:101E70009F938F933F922F920E94400929AF3AAFD0
:101E80004BAF5CAF6DAF7EAF8FAF21969FAF219709
:101E90000F900F900F900F900F900F906F96EEADE8
:101EA000FFAD6F97D1011196FC93EE93A5962CADE3
:101EB0003DAD4EAD5FADA5979A962D933D934D9355
:101EC0005C939D97A9962CAD3DAD4EAD5FADA997A6
:101ED0009E962D933D934D935C93D197AB96EFAD2A
:101EE000AB979796EC939797AA96FFADAA9796967D
:101EF000FC9348CDF30180829182A282B382D1010A
:101F00009A968D909D90AD90BC909D97ED90FC9091
:101F100011979E960D911D912D913C91D197B501F0
:101F2000A401C7010E940902F10166A777A780AB4F
:101F300091AB681579058A059B0588F4F701E60FD2
:101F4000F71F20812C3259F46F5F7F4F8F4F9F4FC7
:101F5000D1019E966D937D938D939C93D197BFEF06
:101F60004B1A5B0AE8E06E0E711C6CCE263009F04D
:101F700076CFD3018D929C92C2CF25E08BEF820F5A
:101F8000823008F06CCFB401263019F0C5010E94F0
:101F9000C833F30171836083B2CF223009F0F1CEF0
:101FA000D501C4010496A11DB11D6D96EEADFFAD26
:101FB0006D9780809180880E991EDBCF253009F0C7
:101FC000E0CEC501B4010E94CF33E3CFD3018C92A0
:101FD00011969C9211971296AC9212971396BC92FE
:101FE00013971496CC9214971596DC921597169623
:101FF000EC9216971796FC9282CFF30131822082E1
:102000007ECF6D96AEADBFAD6D978D919C91F30176
:102010009183808374CF1A141B04BCF4212F302FBA
:10202000A301B40160968FAD609762969FAD6297F1
:1020300004E00E948E35122F032F3A014B01609667
:102040008FAF609762969FAF62972396AEADBFAD9C
:1020500023978D912396BFAFAEAF23970E94F003D5
:10206000182BBFEFAB1ABB0A3FCE812E902E8114E6
:10207000910409F458CE2D964EAD5FAD2D974830A2
:10208000510508F050CEFA01E05BFF4EC9A4DAA476
:1020900009A11AA1A98DBA8D69887A880C9488350E
:1020A00058108E109C10A810B410C010CC10DB106B
:1020B00069857A8576019D01A30189819A81F40160
:1020C000099529AB3AAB4BAB5CAB6DAB7EAB8FAB41
:1020D00098AF2B96AEADBFAD2B97EC91E256E531A4
:1020E00008F0CDC00E2E000CFF0BE758FF4E0C94ED
:1020F00088350B113F1106113F113F113F113F1160
:10210000FD102C113F113F113F113F113F11EA10FB
:102110003F113F111E113F113F11421169857A8510
:1021200076019D01A30189819A81F401099569AB2A
:102130007AAB8BAB9CABCDCF49855A8569817A81CF
:102140008B819C8178018D019301F4010995B9CFB0
:1021500049855A8569817A818B819C8178018D01BD
:102160009301F4010995E3CF49855A856B857C85F8
:1021700078018D01930189819A81F4010995A1CF9C
:1021800049855A856B857C8578018D01930189810C
:102190009A81F4010995CBCF29853A854B855C85D9
:1021A00069817A818B819C81560168017D0183015F
:1021B000F401099586CF29853A854B855C8569812F
:1021C0007A818B819C81560168017D018301F40134
:1021D0000995ADCF69A97AA990E080E00E94763197
:1021E0000E94040429AF3AAF4BAF5CAF6DAF7EAF36
:1021F0008FAF21969FAF219751CE69A97AA9072E5B
:10220000000C880B990B0E947831EACF69A97AA952
:102210008BA99CA9E5CF81E029A93AA9232B09F430
:1022200080E089AF1AAE1BAE1CAE1DAE1EAEB6EF7F
:10223000BFAFEFE72196EFAF219730CE69A97AA91A
:10224000FB0101900020E9F73197AF01461B570BC6
:10225000C1010E94D60AC6CFF9A9F9AF2AA92AAFAF
:102260003BA93BAF4CA94CAF5DA95DAF8EA98EAF2A
:102270009FA99FAFA8AD2196AFAF21970FCE82E463
:1022800092E053CD19AE1AAE1BAE1CAE1DAE1EAE03
:10229000B3EFCECFC1010E94350AEE24E394F12CB6
:1022A00023962EAD3FAD23972901330F660877089B
:1022B000A1014E5B5F4F5AAF49AF87010F2C000C55
:1022C000220B330B23968EAD9FAD2397E816F906AC
:1022D0000CF042C1B301A2012B968EAD9FAD2B979E
:1022E0000E9409022F966CAF7DAF8EAF9FAF2F97E4
:1022F0002D96EEACFFAC2D972B96CEACDFAC2B978A
:10230000CE0CDF1C23968EAD9FAD2397E816F90601
:102310002CF4D6018C91893209F491C119821A8268
:102320001B821C82F6018081082E000C990B0E94F2
:10233000DE03882309F408C123964EAD5FAD2397D1
:102340002D962EAD3FAD2D97421B530B052E000C45
:10235000660B770B9E012F5F3F4FC6010E94390429
:10236000823009F0F1C0D101ED90FC9011979E965A
:102370000D911D912D913C91D1979A964D915D9122
:102380006D917C919D97C7010E940902F10166A79A
:1023900077A780AB91AB6E0D7F1DDB018C918932ED
:1023A00009F4BBC047E06FE8C1010E94A119609623
:1023B0002FAF6097E32EF42E66965FAF6697689610
:1023C0006FAF68976C967FAF6C97A0968FAFA09712
:1023D000A1969FAFA19749815A81B601C1010E9480
:1023E000D60A49015A016B01A9ADBAAD0C911196FB
:1023F0001C91119712962C91129713963C9113975A
:1024000014964C91149715965C91159716966C91AD
:10241000169717967C91A196BFADA197BF93A096F2
:10242000EFADA097EF936C96FFAD6C97FF93689616
:10243000AFAD6897AF936696BFAD6697BF93FF92B7
:10244000EF926096EFAD6097EF937C01C1010E941F
:102450006A0AD1019A968D909D90AD90BC909D97FF
:10246000ED90FC9011979E960D911D912D913C91B0
:10247000D197B501A401C7010E940902F10166A725
:1024800077A780AB91AB0FB6F894DEBF0FBECDBF80
:10249000681579058A059B0588F4F701E60FF71F93
:1024A00020812C3259F46F5F7F4F8F4F9F4FD101A6
:1024B0009E966D937D938D939C93D1972D96EEADC3
:1024C000FFAD2D978F01FF0F220B330B89819A816E
:1024D000AB81BC81080F191F2A1F3B1FB301A2014A
:1024E0002B968EAD9FAD2B970E9409027B01239600
:1024F0002EAD3FAD2397621773070CF0DECE2B96FF
:10250000EEADFFAD2B97E60FF71F20812C3209F0BF
:10251000D4CE3FEFE31AF30AD0CE60961FAE609799
:10252000E12CF12C66961FAE669768961FAE6897F1
:102530006C961FAE6C97B3EFA096BFAFA097EFE776
:10254000A196EFAFA19747CF23964EAD5FAD2397EE
:10255000E416F5060CF473C08701FF0C220B330B55
:10256000B301A2012B968EAD9FAD2B970E9409025D
:10257000DB012396EEADFFAD23976E177F0754F472
:102580002B96EEADFFAD2B97E60FF71F20812B3773
:1025900009F4119624E0F10127A363962EAD3FAD17
:1025A00063972A1B3B0B21503109032E000C440B6F
:1025B000550B2B966EAD7FAD2B976A0F7B1FC1011C
:1025C0000E94312C29AF3AAF4BAF5CAF6DAF7EAFFD
:1025D0008FAF21969FAF2197D10197968C9184FD63
:1025E0000CC019AE1AAE1BAE1CAE1DAE1EAEB3EFC4
:1025F000BFAFEFE72196EFAF2197F101EE5BFF4F01
:1026000040815181628173814C5F5F4F6F4F7F4F7B
:10261000D101A65BBF4F0D90BC91A02DA40FB51F9B
:102620000D911D912D913C91008311832283338361
:102630001482158280EF86838FE787832FCCD601A3
:102640008C91893209F088CFBFEFEB1AFB0A84CF57
:1026500060E070E080E89FE30E9404049F938F9302
:102660007F936F935F934F933F932F9372018301F7
:102670009401A50164E8C1010E94FA2D0FB6F894F7
:10268000DEBF0FBECDBF7EC960E070E080E89FE393
:102690000E9404049F938F937F936F935F934F9354
:1026A0003F932F93720183019401A50165E8E3CF65
:1026B00022962FAD229723963FAD239724964FADB8
:1026C000249725965FAD259726966FAD269727967A
:1026D0007FAD279728968FAD289729969FAD29978C
:1026E00004E30E94A9352F3F37404105510561059C
:1026F00071058105910509F081C422962FAD2297BD
:1027000023963FAD239724964FAD249725965FAD32
:10271000259726966FAD269727967FAD2797289603
:102720008FAD289729969FAD299700E30E94A93580
:102730002F70263009F062C481E025962CAD3DADA6
:102740004EAD5FAD2597232B242B252B09F080E080
:1027500089AF1AAE1BAE1CAE1DAE1EAE36EF0EC359
:1027600029965FAD29975F9328968FAD28978F9311
:1027700027969FAD27979F932696AFAD2697AF9349
:102780002596BFAD2597BF932496EFAD2497EF9381
:102790002396FFAD2397FF9322962FAD22972F9379
:1027A000720183019401A5012A966FAD2A97C10198
:1027B0000E94FA2D29AF3AAF4BAF5CAF6DAF7EAF41
:1027C0008FAF21969FAF219759CF2A96BFAD2A97F9
:1027D000BA3751F5C814D904EA04FB0411F523965D
:1027E0006EAD7FAD2397680F791F840D951DA601EF
:1027F0000E94C43531E020E0892B09F030E0922FAF
:10280000892F880F880B39AF9AAF8BAF8CAF8DAF04
:102810008EAFE82FE66FEFAF8F6721968FAF2197CE
:10282000B1C830E090E0ECCF2A96FFAD2A97FB3795
:1028300019F5C814D904EA04FB0471F423966EADAB
:102840007FAD2397680F791F840D951DA6010E9407
:10285000C43521E0892B09F020E02095217029AFB3
:102860001AAE1BAE1CAE1DAE1EAE26EF2FAF3FE75D
:1028700021963FAF219786C887E592E00C94370CEC
:102880002A968FAD2A978656873008F048C0229640
:102890002FAD229723963FAD239724964FAD2497D3
:1028A00025965FAD259726966FAD269727967FAD27
:1028B000279728968FAD289729969FAD299704E3EF
:1028C0000E94A9352F3F374041055105610571052B
:1028D0008105910509F070C022962FAD22972396AD
:1028E0003FAD239724964FAD249725965FAD25974E
:1028F00026966FAD269727967FAD279728968FADA2
:10290000289729969FAD299700E30E94A9352F703B
:10291000253009F451C082E692E00C94370C2A96D7
:10292000FFAD2A97F43609F447C09D01412F572D7A
:10293000662D752D842D2C969FAD2C972F3F3740FB
:1029400041055105610571058105910581F429ADA8
:102950003AAD4BAD5CAD6DAD7EAD8FAD21969FAD0B
:10296000219700E30E94A9352F702530A1F6229609
:102970002FAD229723963FAD239724964FAD2497F2
:1029800025965FAD259726966FAD269727967FAD46
:10299000279728968FAD289729969FAD299704E30E
:1029A0000E94A9352F3F374041055105610571054A
:1029B0008105910509F490CF89AC9AACABACBCAC65
:1029C0002596CCACDDACEEACFFAC25972A96EFADEE
:1029D0002A97E456EB3108F057C2F0E0EE50FB4E78
:1029E0000C948835C2154417441744178C15831569
:1029F000441766177F150D153F1516152A15461530
:102A00004D159815AE154417FF1617172E173817C2
:102A1000C516E016611550157015A7019601C50180
:102A2000B4010E9403340E94040482C420E030E018
:102A3000A901C701B6010E947131811104C080E76C
:102A400092E00C94370CA7019601C501B4010E94D5
:102A50005633E9CFA7019601C501B4010E94563350
:102A60000E94C8330E947831A70196010E94D73195
:102A70009B01AC01C501B4010E94E932D4CFA5018C
:102A80009401C701B6010E94D731CDCFA5019401B1
:102A9000C701B6010E94EA32C6CFA7019601EACF6C
:102AA000C501B4010E94C8334B015C01C701B601E6
:102AB0000E94C833682579258A259B250E94783194
:102AC000B2CFC501B4010E94C8334B015C01C701FC
:102AD000B6010E94C833682179218A219B21EECF5B
:102AE000C501B4010E94C8334B015C01C701B601A6
:102AF0000E94C833682979298A299B29DFCFC70119
:102B0000B601905890CFC701B6010E94C8336095B6
:102B1000709580959095D2CF11E020E030E0A9012A
:102B2000C701B6010E947131811110E019AF98CE32
:102B3000C501B4010E94C8334B015C01C701B60155
:102B40000E94C833A501940104C0220F331F441F03
:102B5000551F6A95D2F7CA01B901B0CFC501B401BA
:102B60000E94C8334B015C01C701B6010E94C83303
:102B7000A501940104C055954795379527956A9509
:102B8000D2F7E9CF22962FAD229723963FAD239718
:102B900024964FAD249725965FAD259726966FAD69
:102BA000269727967FAD279728968FAD2897299649
:102BB0009FAD299704E30E94A9352F3F3740410577
:102BC00051056105710581059105F1F422962FAD3E
:102BD000229723963FAD239724964FAD24972596B1
:102BE0005FAD259726966FAD269727967FAD2797E1
:102BF00028968FAD289729969FAD299700E30E94CC
:102C0000A9352F70283021F08CE792E00C94370C16
:102C10009D01412F572D662D752D842D2C969FAD2E
:102C20002C972F3F374041055105610571058105FE
:102C3000910509F064C0D101ED90FC9025968CAD12
:102C40009DADAEADBFAD2597BB27F701E80FF91FCE
:102C500029AD3AAD4BAD5CAD6DAD7EAD8FAD21967E
:102C60009FAD219700E30E94A9352F70223009F013
:102C700044C022962FAD229723963FAD23972496EA
:102C80004FAD249725965FAD259726966FAD269775
:102C900027967FAD279728968FAD289729969FADC9
:102CA000299708E10E94A9354901CA01B401992771
:102CB00026E030E04BE852E0CF010E94290488234F
:102CC000F1F0F101E65BFF4F0190F081E02D29ADBD
:102CD0003AADE20FF31F608171818281938122E01E
:102CE00096958795779567952A95D1F761507109E3
:102CF000810991090E94763196CE222321F082E942
:102D000092E00C94370C22962FAD229723963FAD7C
:102D1000239724964FAD249725965FAD2597269649
:102D20006FAD269727967FAD279728968FAD28976A
:102D300029969FAD299708E10E94A9357A0169017A
:102D4000FF247F0109AD1AAD2BAD3CAD4DAD5EAD9D
:102D50006FAD21967FAD2197C1010E9431066115AB
:102D600071058105910509F4D1C08B019C0169AF02
:102D70001AAF8BAF3CAF1DAE1EAE31EF3FAF4FE78A
:102D800021964FAF21970C94C20CC501B4010E944B
:102D9000C8334B015C01C701B6010E94C83321E072
:102DA00086169706A806B90609F020E029AF1AAEE4
:102DB0001BAE1CAE1DAE1EAE56EF5FAF8FE72DCD26
:102DC000C501B4010E94C8334B015C01C701B601C3
:102DD0000E94C83321E086169706A806B90609F4B2
:102DE00020E029AF1AAE1BAE1CAE1DAE1EAE96EF94
:102DF0009FAFAFE72196AFAF21970C94C20C11E0C3
:102E0000A5019401C701B6010E94FE3318160CF00B
:102E100010E019AF1AAE1BAE1CAE1DAE1EAEB6EF63
:102E2000BFAFEFE72196EFAF21970C94C20C11E0F2
:102E3000A5019401C701B6010E94FE3387FD10E091
:102E400019AF1AAE1BAE1CAE1DAE1EAEF6EFFFAF35
:102E50002FE721962FAF21970C94C20CA501940166
:102E6000C701B6010E947131881F8827881F70CC66
:102E700011E0A5019401C701B6010E947131181635
:102E80000CF410E019AF93CF1F922A969FAD2A97AA
:102E90009F9384EA92E09F938F933F922F920E9498
:102EA000400929AF3AAF4BAF5CAF6DAF7EAF8FAF8C
:102EB00021969FAF21970F900F900F900F900F903A
:102EC0000F900C94C20CA1E0A9AFA4CF2296FFAD45
:102ED0002297F9AF23962FAD23972AAF24963FADC3
:102EE00024973BAF25964FAD25974CAF26965FAD07
:102EF00026975DAF27968FAD27978EAF28969FAD0B
:102F000028979FAF2996AFAD299774CF19AE1AAE07
:102F10001BAE1CAE1DAE1EAEB3EF82CFE43108F087
:102F2000AEC90E2E000CFF0BE856F84E0C948835F7
:102F30002F0F3F117A0F3F113F113F113F11BD0F6E
:102F4000E60F3F113F11FD0F3F113F11E10F3F1100
:102F50003F11C10E3F1101102A96FFAD2A97F33899
:102F600009F0FECBF101E65BFF4FB301A2014C7FFC
:102F7000485F5F4F6F4F7F4F0190F081E02DE40F6E
:102F8000F51F22962FAD2297208323963FAD2397DE
:102F9000318324964FAD2497428325965FAD2597C4
:102FA000538326968FAD2697848327969FAD2797C8
:102FB00095832896AFAD2897A6832996BFAD29970C
:102FC000B78349AE5AAE6BAE7CAE8DAE9EAEAFAEA1
:102FD0002196BFAE21970C94C20C2A962FAD2A974A
:102FE000283609F465CB08F02FC1263609F430CB1A
:102FF00008F04ACB253611F40C94E90C29AD3AAD12
:103000004BAD5CAD6DAD7EAD8FAD21969FAD219783
:1030100004E30E94A935D901142F752E662E572E70
:10302000482E2C969FAF2C972F3F374041055105D6
:10303000610571058105910509F022CC29AD3AADF4
:103040004BAD5CAD6DAD7EAD8FAD21969FAD219743
:1030500000E30E94A9352F70223009F011CC22968E
:103060002FAD229723963FAD239724964FAD2497FB
:1030700025965FAD259726966FAD269727967FAD4F
:10308000279728968FAD289729969FAD299704E317
:103090000E94A9352F3F3740410551056105710553
:1030A0008105910509F0ECCB22962FAD229723964E
:1030B0003FAD239724964FAD249725965FAD259776
:1030C00026966FAD269727967FAD279728968FADCA
:1030D000289729969FAD299700E30E94A9352F7064
:1030E000223009F0CDCB9101265B3F4F2D963FAFAB
:1030F0002EAF2D97D9018D919C91E9ADFAADE80FD6
:10310000F91FC080D180E280F38032E0F694E7942A
:10311000D794C7943A95D1F7B1E0CB1AD108E1081A
:10312000F10849AC5AAC6BAC7CACE4E04E0E511CDF
:10313000611C711C2396EEADFFAD2397E80FF91FBC
:1031400080809180A280B38042E0B694A794979447
:1031500087944A95D1F7F1E08F1A9108A108B10838
:1031600025962CAD3DAD4EAD5FAD25972C5F3F4F05
:103170004F4F5F4F25962CAF3DAF4EAF5FAF2597BA
:103180002A963FAD2A97313709F01FCBA4014C0D89
:103190005D1D70E060E0C1010E94D60A29AF3AAF20
:1031A0004BAF5CAF6DAF7EAF8FAF21969FAF2197D6
:1031B00004E30E94A9352F3F3740410551056105C1
:1031C00071058105910511F00C94C20C29AD3AAD41
:1031D0004BAD5CAD6DAD7EAD8FAD21969FAD2197B2
:1031E00000E30E94A9352F70223011F00C94C20C1C
:1031F0002D96EEADFFAD2D9780819181BC01640DC0
:10320000751D49AC5AAC6BAC7CACF4E04F0E511C54
:10321000611C711C840D951DA6010E94D1352D964F
:10322000AEADBFAD2D978D919C9123966EAD7FADC8
:103230002397680F791F4C0C5D1CA401840D951D0C
:103240000E94D1350C94C20C2A963FAD2A973F3785
:1032500011F40C944C0C303811F40C948B0C3A365D
:1032600009F0CCCE22962FAD229723963FAD23971F
:1032700024964FAD249725965FAD259726966FAD82
:10328000269727967FAD279728968FAD2897299662
:103290009FAD299704E30E94A9352F3F3740410590
:1032A0005105610571058105910511F00C94E60C3D
:1032B00022962FAD229723963FAD239724964FADAC
:1032C000249725965FAD259726966FAD269727966E
:1032D0007FAD279728968FAD289729969FAD299780
:1032E00000E30E94A9352F7082E1E0E0F1E0DE0109
:1032F000119601900D928A95E1F76EE072E0293007
:1033000060F430E0220F331FE1E0F0E0EC0FFD1F2E
:103310002E0F3F1FD9016D917C91FB010190002080
:10332000E9F73197AF01461B570BC1010E94D60A3E
:1033300029AF3AAF4BAF5CAF6DAF7EAF8FAF0C94A0
:10334000870C2F923F924F925F926F927F928F9253
:103350009F92AF92BF92CF92DF92EF92FF920F9324
:103360001F93CF93DF93CDB7DEB7C950D1400FB6CF
:10337000F894DEBF0FBECDBF3C01CC5FDE4F68834B
:10338000C450D140CB5FDE4F4883C550D140C250BE
:10339000DF4F1882CE5FD040CC50DF4F1882C45F21
:1033A000D040B12C10E09C01265C3F4FC051DF4F54
:1033B00039832883C05FD040AC01405B5F4FCA5F58
:1033C000DE4F59834883C650D140845B9F4FC85F0E
:1033D000DE4F99838883C850D140D301A65BBF4F8D
:1033E000C150DF4FB983A883CF5FD040F301EE5BBC
:1033F000FF4FCE50DF4FF983E883C25FD040C30157
:103400000E94A806C951DF4F8883C75ED040CC5FB9
:10341000DE4FF881C450D1408F1749F0CB5FDE4FAB
:10342000E880C550D1408E1511F08130B1F4D30140
:1034300097968C9180FD02C00C940723CB2CE12C35
:10344000F12C10E0B0E0A0E003EF202EEFE7C65132
:10345000DF4FE883CA5ED0402FC2C951DF4FF881E9
:10346000C75ED040F11119C088ED92E09F938F9311
:103470007F926F920E944009C22EE32EF42E152FE8
:10348000B62FA72F282EC651DF4F9883CA5ED04093
:103490000F900F900F900F900FC203E1E02EEB14EE
:1034A00018F484EE92E0E2CFC951DF4F0881C75E85
:1034B000D040063059F5BB2019F0143608F46DC021
:1034C00031E03B0DC851DF4F3883C85ED04041E04A
:1034D00067E0C3010E94A119A8E0BA9EF00111247F
:1034E000EE24E394F12CEC0EFD1EEE0DFF1D208367
:1034F000318342835383648375838683978306E095
:10350000C951DF4F0883C75ED040D0C2C951DF4FD9
:103510002881C75ED040243608F045C0C951DF4F2E
:103520001881C75ED040183009F4EDC308F008C216
:10353000133009F4B2C308F0F7C1123009F447C2DE
:10354000D3018D919C911197D2962D913C91D39757
:10355000820F931F9F938F93D7968C91D7978F93BA
:10356000D6968C918F9383E193E09F938F937F9274
:103570006F920E944009C22EE32EF42E152FB62F13
:10358000A72F282EC651DF4F9883CA5ED0400FB6B2
:10359000F894DEBF0FBECDBF8FC135E6C951DF4FF6
:1035A0003883C75ED040C951DF4F8881C75ED040A5
:1035B00081578230D0F481E0BB2039F0143620F0FE
:1035C000165681E0123008F480E080FF0EC0C95129
:1035D000DF4F4881C75ED040413709F085C05BE6C8
:1035E000C951DF4F5883C75ED040CC50DF4F388081
:1035F000C45FD0403394EDECF0E0EC0FFD1FCC50F5
:10360000DF4F9881C45FD040E90FF11DB0824424A0
:1036100043944B0CA8E0BA9EF0011124EE24E394ED
:10362000F12CEC0EFD1EEE0DFF1DC951DF4FF88091
:10363000C75ED040F08211821282138214821582FA
:1036400089EF86838FE787838F2D8656873008F42E
:10365000C8C7C250DF4F0881CE5FD0400F5FC25055
:10366000DF4F0883CE5FD0401F2D153609F0B9C754
:10367000B394B394C851DF4FB882C85ED040512C88
:10368000D3019E96CD90DD90ED90FC90D197C30133
:103690000E94A806F30106A517A520A931A946A9ED
:1036A00057A960AD71AD873031F50C191D092E0990
:1036B0003F09041B150B260B370B302F2227112730
:1036C0000027FF240C291D292E293F29202EC65111
:1036D000DF4F1883CA5ED040F22FE32F912CA12C2C
:1036E000A8EFBA2E1FE774C08CE6C951DF4F88835C
:1036F000C75ED0407ACF041B150B260B370B06A7ED
:1037000017A720AB31AB87A0882D816087A347E046
:103710006FE8C3010E94A119222EC651DF4F3883E2
:10372000CA5ED040F42FE52F962EA72EB82E192F63
:1037300004E30E94A9352F3F37404105510561053B
:1037400071058105910591F4222DC651DF4F388115
:10375000CA5ED0404F2F5E2F692D7A2D8B2D912F71
:1037600000E30E94A9352F70293091F1422DC651F6
:10377000DF4F5881CA5ED0406F2F7E2F452B462BDE
:10378000472B11F4F30116A2D30196968C919697CC
:103790008F3809F4BCCF97968C92873009F4B2C069
:1037A00088ED92E09F938F937F926F920E944009E1
:1037B000222EC651DF4F3883CA5ED040F42FE52F4A
:1037C000962EA72EB82E192F0F900F900F900F90B6
:1037D00053E0440C551C5A95E1F7EE24E394F12C88
:1037E000EC0EFD1E4E0C5F1CD2012C92C651DF4F19
:1037F000E880CA5ED0401196EC9211971296FC9325
:1038000012971396EC93139714969C92149715960F
:10381000AC9215971696BC92169717961C93C851A2
:10382000DF4F0881C85ED0400150110BC80173E022
:10383000880F991F7A95E1F721E030E02C0F3D1FAA
:10384000820F931FDC01CC901196EC901197129689
:10385000FC90129713961C9113971496BC91FC013F
:10386000A5812680F781C651DF4FF883CA5ED0401C
:103870002C2D3E2D4F2D512F6B2F7A2F822D9F2FC8
:1038800004E30E94A9352F3F3740410551056105EA
:1038900071058105910509F0A9C62C2D3E2D4F2DEE
:1038A000512F6B2F7A2F822D9F2F00E30E94A93575
:1038B0002F70293009F09AC62C2D3E2D4F2D512FF7
:1038C0006B2F7A2F822DC651DF4F9881CA5ED04070
:1038D000C75FDE4F0FB6F894DEBF0FBECDBFDF91DE
:1038E000CF911F910F91FF90EF90DF90CF90BF90FD
:1038F000AF909F908F907F906F905F904F903F9090
:103900002F900895F30106A517A520A931A90C1938
:103910001D092E093F0986A997A9A0ADB1AD081BC5
:10392000190B2A0B3B0BC9CEC951DF4F2881C75E4B
:10393000D040243009F47CC4263009F001CEC0CD3B
:10394000C951DF4F3881C75ED0403F3409F413C6F8
:10395000F8F43E3309F456C53E3409F0F1CD31E0B8
:103960003B0DC851DF4F3883C85ED04048E0B49E5D
:10397000F001112481E090E08C0F9D1FE80FF91FEA
:1039800010821182128213821482158283EF0BC679
:10399000C951DF4F4881C75ED040403509F406C6A3
:1039A000413509F0CDCDFF24F394FB0CC851DF4F16
:1039B000F882C85ED04008E0B09EF001112421E0FA
:1039C00030E02C0F3D1FE20FF31F108203C68B2D3A
:1039D00090E0C551DF4F99838883CB5ED040D301FF
:1039E00097968C91979780FD4FC1D6962D903D90DC
:1039F0004D905C90D997D2968D919D910D90BC91F0
:103A0000A02DBB2009F4A8C0C551DF4FE881F98182
:103A1000CB5ED040319733E0EE0FFF1F3A95E1F7D0
:103A2000EE24E394F12CEC0EFD1EEE0DFF1D008143
:103A3000118122813381043608F48EC004361105C9
:103A40002105310509F088C0522C44243324222456
:103A5000BB2782299329A429B529AC01BD019A016C
:103A6000162F572F60E070E088EF9FE7C551DF4FBA
:103A7000E881F981CB5ED040B3E0EE0FFF1FBA952D
:103A8000E1F7EE24E394F12CEC0EFD1EEE0DFF1D8C
:103A90002083318312835383648375838683978362
:103AA000B394C851DF4FB882C85ED040C851DF4FD1
:103AB0000881C85ED0400150110BC80123E0880F77
:103AC000991F2A95E1F721E030E02C0F3D1F820F6E
:103AD000931FDC01CC901196EC9011971296FC90FC
:103AE000129713961C9113971496BC91FC01A58113
:103AF0002680F781C651DF4FF883CA5ED0402C2D57
:103B00003E2D4F2D512F6B2F7A2F822D9F2F04E3A7
:103B10000E94A9352F3F37404105510561057105C8
:103B20008105910599F42C2D3E2D4F2D512F6B2F92
:103B30007A2F822DC651DF4F9881CA5ED04000E3B4
:103B40000E94A9352F70293009F4B6CECC50DF4F32
:103B50003880C45FD0404AC5C351DF4F39822882C4
:103B6000CD5ED040F301208131817901E80EF91E4C
:103B7000C851DF4FF982E882C85ED040CE50DF4F97
:103B8000A881B981C25FD040BC91C651DF4FB883D4
:103B9000CA5ED040CE50DF4FE881F981C25FD0408D
:103BA00081809280A3804481558166817781C35151
:103BB000DF4FC880D980CD5ED040C851DF4FE8804C
:103BC000F980C85ED040C651DF4F0881CA5ED04040
:103BD000182D292D3A2DC3010E943106611571055A
:103BE0008105910549F0AB01BC019A01182F572FAF
:103BF00060E070E081EF39CFC651DF4F8881CA5E47
:103C0000D040982DA92DBA2D0097A105B105F9F046
:103C10000496A11DB11DC150DF4FE881F981CF5F2E
:103C2000D04020813181820F931FDC010D911D91C5
:103C30002D913C91C651DF4F0883CA5ED040812E42
:103C4000922EA32E40E050E060EF7FE7B0CFC75147
:103C5000DF4FB881C95ED040BF93C851DF4FE881C4
:103C6000C85ED040EF933F922F9282EF92E09F93F5
:103C70008F937F926F920E944009142F0FB6F89491
:103C8000DEBF0FBECDBFF2CE20E030E010E050E04E
:103C900060E070E080E090E0E9CEFF24F394FB0C5C
:103CA000C851DF4FF882C85ED04008E0B09EF001F6
:103CB000112421E030E02C0F3D1FE20FF31FC05113
:103CC000DF4FA881B981C05FD0408C91808311966D
:103CD0008C911197818312968C91129782831396FF
:103CE0008C911397838314968C91149784831596E3
:103CF0008C911597858316968C91169786831796C7
:103D00008C918783D3CEB1E0BB0DC851DF4FB88310
:103D1000C85ED040EB2DF0E0CF5FDE4FF983E88343
:103D2000C150D140D30197968C91B82FB170CD5F1F
:103D3000DE4FB883C350D14080FD97C0CF51DF4FD5
:103D4000188219821A821B82C15ED04004E010E002
:103D50009E012F513F4F40E050E0BA01C3010E9445
:103D6000720919012A01C651DF4F6883CA5ED0402B
:103D7000C551DF4F7883CB5ED040C351DF4F88837E
:103D8000CD5ED040C151DF4F9883CF5ED0409101CE
:103D9000A201C651DF4F6881CA5ED040C551DF4FD6
:103DA0007881CB5ED040C351DF4F8881CD5ED0405B
:103DB000C151DF4F9881CF5ED04004E30E94A93506
:103DC0002F3F37404105510561057105810591057A
:103DD00009F0ADC09101A201C651DF4F6881CA5EF2
:103DE000D040C551DF4F7881CB5ED040C351DF4F0B
:103DF0008881CD5ED040C151DF4F9881CF5ED040E9
:103E000000E30E94A9352F70293009F090C0CF5FE0
:103E1000DE4FE881F981C150D140A3E0EE0FFF1FD2
:103E2000AA95E1F701E010E00C0F1D1FE00FF11F54
:103E30002082318242825382C651DF4F1881CA5E8E
:103E4000D0401483C551DF4F2881CB5ED0402583FD
:103E5000C351DF4F3881CD5ED0403683C151DF4F33
:103E60004881CF5ED040478321CE212C312C412C7C
:103E7000512CC651DF4F1882CA5ED040C551DF4F6A
:103E80001882CB5ED040E3EFC351DF4FE883CD5EB5
:103E9000D040FFE7C151DF4FF883CF5ED04077CFEE
:103EA000F30182A893A8A4A8B5A8C6A8D7A8E0AC97
:103EB000F1ACC3010E94A806813809F044C04FE864
:103EC00069E0C3010E94A119CA50DF4F2883C65F71
:103ED000D040132FC850DF4F4883C85FD040C75031
:103EE000DF4F5883C95FD040C650DF4F6883CA5F39
:103EF000D040C550DF4F7883CB5FD040C450DF4FF8
:103F00008883CC5FD040C350DF4F9883CD5FD040D3
:103F1000CD5FDE4FF881C350D140FF23B9F1D3010B
:103F200096968C91893009F472CF8F3861F4C30171
:103F30000E94A806893009F46ACFD30196968C9125
:103F4000823009F4ADCF88ED92E09F938F937F92FA
:103F50006F920E94400919012A01C651DF4F688300
:103F6000CA5ED040C551DF4F7883CB5ED040C3518D
:103F7000DF4F8883CD5ED040C151DF4F9883CF5E45
:103F8000D0400F900F900F900F9041CFCA50DF4F4D
:103F90002881C65FD040C850DF4F4881C85FD040FD
:103FA000C750DF4F5881C95FD040C650DF4F68818E
:103FB000CA5FD040C550DF4F7881CB5FD040C4503E
:103FC000DF4F8881CC5FD040C350DF4F9881CD5FF9
:103FD000D04004E30E94A9352F3F374041055105E9
:103FE000610571058105910559F5CA50DF4F28819A
:103FF000C65FD040312FC850DF4F4881C85FD040E6
:10400000C750DF4F5881C95FD040C650DF4F68812D
:10401000CA5FD040C550DF4F7881CB5FD040C450DD
:10402000DF4F8881CC5FD040C350DF4F9881CD5F98
:10403000D04000E30E94A9352F70293009F4ADC0AB
:10404000F30160817181680D791DA601C3010E9491
:10405000D60A49015A016B017C0104E30E94A9358B
:104060002F3F3740410551056105710581059105D7
:1040700059F49401A501B601C70100E30E94A935D6
:104080002F70293009F4C2C0CA50DF4F0881C65FC3
:10409000D040C850DF4F2881C85FD040C750DF4FA5
:1040A0003881C95FD040C650DF4F4881CA5FD040D9
:1040B000C550DF4F5881CB5FD040C450DF4F68817F
:1040C000CC5FD040C350DF4F7881CD5FD040C3017B
:1040D0000E94BC019F938F937F936F935F934F9345
:1040E0003F932F9381019201C651DF4F4881CA5EF1
:1040F000D040C551DF4F5881CB5ED040C351DF4F18
:104100006881CD5ED040C151DF4F7881CF5ED04015
:10411000C3010E946A0AD22EE32EF42EC52EB62FBA
:10412000A72FF82FE92F04E30E94A9350FB6F894C2
:10413000DEBF0FBECDBF2F3F3740410551056105A2
:1041400071058105910509F0EACE2D2D3E2D4F2DEB
:104150005C2D6B2F7A2F8F2F9E2F00E30E94A935A5
:104160002F70293009F0DBCE2D2C3E2C4F2C5C2CEF
:10417000C651DF4FB883CA5ED040C551DF4FA88318
:10418000CB5ED040C351DF4FF883CD5ED040C151EC
:10419000DF4FE883CF5ED0403ACECA50DF4F288051
:1041A000C65FD040312EC850DF4F4880C85FD04036
:1041B000C750DF4F5880C95FD040C650DF4FE880FE
:1041C000CA5FD040C651DF4FE882CA5ED040C550BA
:1041D000DF4FF880CB5FD040C551DF4FF882CB5E18
:1041E000D040C450DF4FE880CC5FD040C351DF4F98
:1041F000E882CD5ED040C350DF4FF880CD5FD04025
:10420000C151DF4FF882CF5ED04001CE14012501AD
:10421000C651DF4FC882CA5ED040C551DF4FD88239
:10422000CB5ED040C351DF4FE882CD5ED040E8CFB7
:1042300051E05B0DC851DF4F5883C85ED0402B2C36
:10424000312CCA5FDE4FA881B981C650D1404D9153
:104250005D916D917C91F30186A997A9A0ADB1AD57
:10426000840F951FA61FB71F0496A11DB11DC85F1F
:10427000DE4FE881F981C850D1400081118122814F
:104280003381081719072A073B0778F1D3018D916D
:104290009C911197D2964D905C90480E591E4C5FA0
:1042A0005F4FC150DF4FE881F981CF5FD040E080A0
:1042B000F180E40EF51EB12CA12CD12CC12CFDE017
:1042C0009F2E0AE0C6010196D301D6964D915C91CE
:1042D00096012E5F3F4F241735073CF1A50170E092
:1042E00060E0C3010E94D60A0CC084E092E09F9374
:1042F0008F937F926F920E9440090F900F900F90C2
:104300000F90E3E0220C331CEA95E1F7E1E0F0E0E6
:10431000EC0FFD1FE20DF31D208331834283538395
:104320006483758386839783C1CBF201E80FF91FFD
:1043300020812C3509F056C02181D2013C912313F4
:104340000BC0F70120830196FFEFAF1ABF0A1FEFE2
:10435000E11AF10A6C01B6CF2E3619F4D7010C938D
:10436000F2CF243721F419E0F7011083ECCF223784
:1043700019F4D7019C92E7CF283789F58281482F1D
:104380004053550B91E04A30510538F0282F2F7DCE
:10439000215491E0263008F090E090FF20C0138176
:1043A000A12FA053BB0B91E01A9738F0212F2F7D3E
:1043B000215491E0263008F090E090FF10C00E9458
:1043C000F003882E812F0E94F003B0E18B9E9001B4
:1043D0001124822BF7018083C6010396B4CF83E0BA
:1043E00093E085CFD3012D913C911197D2964D91B9
:1043F0005C91240F351FF901E80FF91F2081F701A7
:104400002083A2CFB1E0BB0DC851DF4FB883C85E97
:10441000D0404B2C512CF30186A497A4A0A8B1A89E
:10442000C7A0C3010E94A80610E0863009F44AC064
:1044300088ED92E09F938F937F926F920E94400944
:10444000322E232EF42FE52FD62EE72EF82E192FFD
:104450000F900F900F900F90C20103E0880F991FEB
:104460000A95E1F721E030E02C0F3D1F820F931FEA
:10447000DC013C9211962C9211971296FC931297A4
:104480001396EC9313971496DC9214971596EC926E
:1044900015971696FC92169717961C9307CBD30187
:1044A00096968C911123A1F0823011F6C3010E94DF
:1044B000A806873079F011E0D30196968C918F3859
:1044C00009F0B6CFC3010E94A806813041F702C0AF
:1044D000873051F7F30186A1873009F0A9CFC301D6
:1044E0000E94A806883009F0A3CFF30187A181605C
:1044F00087A360E0C3010E94A92C322E232EF42F43
:10450000E52FD62EE72EF82E192F04E30E94A935A9
:104510002F3F374041055105610571058105910522
:1045200079F4232D322D4F2F5E2F6D2D7E2D8F2D63
:10453000912F00E30E94A9352F70293009F48CCF08
:10454000D3019796CC9297979E964D915C919F97A9
:10455000481959096D917C91680D791DC3010E941C
:10456000D60A322E232EF42FE52FD12CE12C87EF03
:10457000F82E1FE771CFB1E0BB0DC851DF4FB883F4
:10458000C85ED04008E0B09EF001112421E030E088
:104590002C0F3D1FE20FF31F108211821282138233
:1045A0001482158284EF86838FE7ABCB91E09B0D5D
:1045B000C851DF4F9883C85ED040A8E0BA9EF00192
:1045C0001124EE24E394F12CEC0EFD1EEE0DFF1DE4
:1045D00081E080831182128213821482158286EF19
:1045E000E2CFC851DF4F4882C85ED040CC50DF4F89
:1045F0003882C45FD040C851DF4FB880C85ED04019
:10460000C951DF4F1881C75ED0400C94FF19BB2001
:1046100009F41CC3EB2CF12CCA50DF4FF982E8825D
:10462000C65FD040CC50DF4F1881C45FD040012F0F
:1046300010E0CE50DF4F19830883C25FD040C8011D
:10464000C250DF4F2881CE5FD040820F911D01966E
:10465000E816F90621F08BE293E00C94361A8CE20E
:10466000E2E1F1E0DE01AF55BF4F01900D928A9576
:10467000E1F7F0E0E0E041E09F012F5F3F4FCE50D7
:10468000DF4FE880F980C25FD0402E153F05D4F19E
:10469000442309F488C08E0103531F4FCB51DF4FD1
:1046A00019830883C55ED040CC50DF4F198308833F
:1046B000C45FD040812C912C540144244394512C4C
:1046C000CC50DF4F88819981C45FD040CB51DF4F00
:1046D000E880F980C55ED0408E199F09CE50DF4F2B
:1046E00008811981C25FD040801791070CF45FC028
:1046F000C980EA80FB801C81BD81AE812F80E88566
:104700000C94271AADECCA2ED12CCC0EDD1ECE0E89
:10471000DF1ED6015C91E8E05E9FD0011124EE24FB
:10472000E394F12CEC0EFD1EAE0DBF1D8C91ADEC93
:10473000B0E0AC0FBD1FA20FB31F6C9198E0699F52
:10474000800111240E0D1F1DF801908101EA10E077
:104750000C0F1D1F080F111D04561109F801F080E0
:1047600001EA10E00C0F1D1F090F111D045611095D
:10477000F801708189130DC098E9980F953088F081
:10478000825891E08D3008F090E090FF02C05617FB
:1047900010F0F71620F4F60160835C9340E0F90115
:1047A0006BCF91E0F2CF30E020E041E0F8CFCC5089
:1047B000DF4FA881B981C45FD040DD90CC50DF4F7E
:1047C000B983A883C45FD040ED2DF0E0DF0153E052
:1047D000AA0FBB1F5A95E1F7EE24E394F12CEC0EDF
:1047E000FD1EAE0DBF1DFC90C951DF4FF882C75EA4
:1047F000D0402F2D26568F2D8856A1E0853020F0F1
:104800008A518D3008F0A0E081E090E0273020F45C
:104810008A2F817001E080278170273008F0A1E0A5
:10482000A170CA2EA2010E2E02C0440F551F0A9479
:10483000E2F7052E000C660B770B842A952AA62A30
:10484000B72A882309F4CCC1DD2009F404CFCF01B5
:104850000197A20102C0440F551F8A95E2F7052E69
:10486000000C660B770B842A952AA62AB72ACF015B
:10487000D82EA201082E02C0440F551F0A94E2F759
:10488000052E000C660B770B482159216A217B21EC
:10489000452B462B472B21F00197D82E8111E8CFCD
:1048A000A2010D2C02C0440F551F0A94E2F7052EF9
:1048B000000C660B770B482159216A217B21452B7F
:1048C000462B472B09F4D39418E0D19ED001112434
:1048D00021E030E02C0F3D1FA20FB31FEC9011968A
:1048E000FC90119712961C911297C851DF4F1883B4
:1048F000C85ED04013961C91139714963C90149761
:1049000015962C90159716962C911697C651DF4F39
:104910002883CA5ED04017963C91C551DF4F38833B
:10492000CB5ED0409701C851DF4F4881C85ED04070
:10493000512F632D722DC651DF4F8881CA5ED04042
:10494000C551DF4F9881CB5ED04004E30E94A9356A
:104950002F3F3740410551056105710581059105DE
:10496000D1F49701C851DF4F4881C85ED040512F24
:10497000632D722DC651DF4F8881CA5ED040C5516C
:10498000DF4F9881CB5ED04000E30E94A9352F70A5
:10499000293009F460CECC2009F439C13196C20126
:1049A0000E2E02C0880F991F0A94E2F7092E000C00
:1049B000AA0BBB0B882A992AAA2ABB2ACA50DF4F06
:1049C00028813981C65FD040E217F3070CF043CE4F
:1049D00043E0EE0FFF1F4A95E1F781E090E08C0F76
:1049E0009D1F8E0F9F1FDC01EC911196FC9111977A
:1049F0001296BC91C850DF4FB883C85FD040DC012D
:104A00001396BC91C750DF4FB883C95FD040DC011B
:104A10001496BC91C351DF4FB883CD5ED040DC010A
:104A20001596CC9015971696BC91C151DF4FB8835F
:104A3000CF5ED040DC011796BC91C051DF4FB883E8
:104A4000C05FD0409F01C850DF4F4881C85FD04051
:104A5000C750DF4F5881C95FD040C351DF4F6881D5
:104A6000CD5ED0407C2DC151DF4F8881CF5ED040DC
:104A70009B2F04E30E94A9352F3F37404105510584
:104A80006105710581059105F1F49F01C850DF4F63
:104A90004881C85FD040C750DF4F5881C95FD040C0
:104AA000C351DF4F6881CD5ED0407C2DC151DF4FB7
:104AB0008881CF5ED0409B2F00E30E94A9352F70E4
:104AC000293009F4C8CDC051DF4FA881C05FD04064
:104AD000AF93C151DF4FB881CF5ED040BF93CF922B
:104AE000C351DF4FA881CD5ED040AF93C750DF4F99
:104AF000B881C95FD040BF93C850DF4FA881C85F5D
:104B0000D040AF93FF93EF93C851DF4F0881C85E49
:104B1000D040232D322DC651DF4F4881CA5ED04090
:104B2000C551DF4F5881CB5ED040C951DF4F6881FE
:104B3000C75ED040C3010E94810BC22EE32EF42E2B
:104B4000152FB62FA72F282EC651DF4F9883CA5E88
:104B5000D040E8E0DE9EC001112421E030E02C0FBF
:104B60003D1F820F931FFC01C082E182F2821383FA
:104B7000B483A5832682C651DF4F0881CA5ED04028
:104B800007832C2D3E2D4F2D512F6B2F7A2F822DE9
:104B9000902F04E30E94A9350FB6F894DEBF0FBE34
:104BA000CDBF2F3F37404105510561057105810596
:104BB000910509F085CD2C2D3E2D4F2D512F6B2FBA
:104BC0007A2F822DC651DF4F9881CA5ED04000E314
:104BD0000E94A9352F70293009F072CD0C945C1C0D
:104BE000E12CF12CC851DF4F1882C85ED04010E094
:104BF000312C212CB3EFC651DF4FB883CA5ED040B1
:104C0000AFE7C551DF4FA883CB5ED040C4CEE0E014
:104C1000F0E0C850DF4F1882C85FD040C750DF4F68
:104C20001882C95FD040C351DF4F1882CD5ED0409B
:104C3000C12CA3EFC151DF4FA883CF5ED040BFE7A7
:104C4000C051DF4FB883C05FD0403DCFC12CE12CB5
:104C5000F12C10E0B0E0A0E033EF232EFFE7C651C7
:104C6000DF4FF883CA5ED0400C945C1C2F923F92B9
:104C70004F925F926F927F928F929F92AF92BF926C
:104C8000CF92DF92EF92FF920F931F93CF93DF9318
:104C9000CDB7DEB76E970FB6F894DEBF0FBECDBFAF
:104CA0001C01698FDC0198968D919C91892B09F4E8
:104CB000E2C0F10180A591A5019691A780A7C1014D
:104CC0000E94A8068F3309F492C408F050C08733BD
:104CD00009F42EC3F0F4823309F47CC3F8F488306D
:104CE00009F4F8C4F10186A597A5A0A9B1A946A920
:104CF00057A960AD71AD841B950BA60BB70B86A7AA
:104D000097A7A0ABB1AB45E0698DC1010E94A11985
:104D1000A0C58B3318F08C53823020F7D1018D91D0
:104D20009C911197D2962D913C91D397820F931F0E
:104D30009F938F93D7968C91D7978F93D6968C917C
:104D40008F9384E393E09F938F933F922F920E94DF
:104D50004009B22EC32ED42EE52EF62E172F8B83AC
:104D600099830FB6F894DEBF0FBECDBF08C384345D
:104D700009F436C5A0F4823489F6D10197968C9156
:104D800081708B8B2101B2E44B0E511CC1010E943A
:104D9000A806823009F435C388ED92E0D0C28B3486
:104DA00009F4A8C408F4BACF8E3408F09BCFB6CF6C
:104DB000A981BA81ED91FC91EC0DFD1D608171819D
:104DC000828193814B015C016894B7F88082918263
:104DD000A282B3820E943D03C60ED71EE81EF91EB2
:104DE000F80180819181A281B381C816D906EA06B3
:104DF000FB06F0F2F101EE5BFF4F408051806280D4
:104E0000738073016201B301A201C1010E94950286
:104E1000A981BA81ED91FC91E40DF51D408151818C
:104E2000628173814C7FF80180819181A281B3817D
:104E3000481759076A077B0728F441155105610592
:104E4000710529F5C114D104E104F10409F4ACC0E1
:104E5000F4E0CF0ED11CE11CF11CA981BA818D9127
:104E60009C91C80ED91EF60180819181A281B381E7
:104E70002C013D01C6CFC12CD12C76018101005BF4
:104E80001F4FF101E65BFF4FFA83E983A9CFC10110
:104E90000E949502AB01BC01C6CFACE0B0E0A3011B
:104EA00092010E949832D501CD90DD90ED90FC905A
:104EB000C60ED71EE81EF91ED701C6010496A11D15
:104EC000B11DE981FA8120813181F901E80FF91FD3
:104ED0004081518162817381C1010E949502F8E095
:104EE000CF0ED11CE11CF11CA981BA818D919C913E
:104EF000C80ED91EF6014081518162817381C101C2
:104F00000E949502FFEF4F1A5F0A6F0A7F0AF801AD
:104F100080819181A281B381481659066A067B0679
:104F200008F4BBCF412C512C32019101205B3F4F43
:104F30003A8B298BA101465B5F4F588B4F87B1019C
:104F40006C5A7F4F7B8F6A8FC101845B9F4F9D8F0F
:104F50008C8FD101AE5BBF4FBA83A983E989FA89EF
:104F600080819181A281B381481659066A067B0629
:104F700008F09FCE5C8A4B8AAF85B889ED91FC9191
:104F8000E40DF51D80809180A280B380C501B4013D
:104F90009F770E943D036B017C01B7FE68C11B86B1
:104FA0001C861D861E86E8C0412C512C32018101D1
:104FB0000C5A1F4F51012CE4A20EB11CA8CFEB815B
:104FC000FC812B853C85E20FF31FFC83EB83808003
:104FD0009180A280B380C501B4019F770E943D03F8
:104FE0006D8B7E8B8F8B988FB7FCB6C0D501C401BB
:104FF00083709927AA27BB2782309105A105B105A7
:1050000008F0AAC0481459046A047B0450F48C18B0
:105010009D08AE08BF08EB81FC8180829182A2824C
:10502000B3820197A105B10509F096C0AF85B88993
:10503000ED91FC918B859C85AD85BE850496A11D67
:10504000B11DE80FF91F80819181A281B3814816BB
:1050500059066A067B0640F48C199D09AE09BF0902
:1050600080839183A283B383AF85B889ED91FC914E
:105070008B859C85AD85BE850896A11DB11DE80F69
:10508000F91FB081BE8FA181AB83B281A3819480CF
:10509000A580B68017812E8D3B814B2F5A2F692D0D
:1050A0007A2D8B2D912F04E30E94A9352F3F374095
:1050B00041055105610571058105910509F0DCC0C7
:1050C0002E8D3B814B2F5A2F692D7A2D8B2D912FB1
:1050D00000E30E94A9352F7081E0233018F02730BB
:1050E00009F080E080FF38C04E8D5B816B2F7A2FF6
:1050F000441655066606770678F54A015B018C185A
:105100009D08AE08BF08B501A40180E090E0DC0175
:105110008B825C83AD827E838F839887A987BA87D1
:1051200030E040E050E060E070E080E090E000E3DC
:105130000E948E35AB812A2B2083BC813B2B31838F
:105140000D81402B42832E81522B538364837583C0
:10515000806F86839F6797834B855C856D857E8591
:105160008D899E89AF89B88D480F591F6A1F7B1F93
:105170004B875C876D877E87AF85B8890D90BC9122
:10518000A02DBC83AB83E989FA8980819181A281BA
:10519000B3812B853C854D855E85281739074A07E5
:1051A0005B0708F40CCF812C912C5401AF85B88992
:1051B0000D90BC91A02DBC87AB87EA8DFB8D8081C3
:1051C0009181A281B38188169906AA06BB0608F4CC
:1051D00055C0A981BA810D911D912D913C911397D4
:1051E0004016510662067306D8F40C191D092E09E3
:1051F0003F090C9311961C93119712962C931297BA
:1052000013963C93139714961C92149715961C9220
:10521000159780EF16968C9316978FE717968C93B9
:10522000E989FA89408151812B893C89421B530BC2
:105230004C195D09B9016C0D7D1DEB85FC856E0F68
:105240007F1FC9018E0F9F1F0E94D135E989FA89FE
:1052500080819181A281B3818C199D09AE09BF091A
:1052600080839183A283B383C12CD12C76014C0C13
:105270005D1C6E1C7F1C72CE25E033CFACE0B0E02D
:10528000A50194010E949832AC8DBD8D0D911D91A8
:105290002D913C91DC01CB01800F911FA21FB31F08
:1052A0008C019D010C5F1F4F2F4F3F4FEB85FC85FD
:1052B000E00FF11FFC83EB83008111812281338198
:1052C000AC01BD01485F5F4F6F4F7F4FEB85FC85A1
:1052D000E40FF51F80819181A281B38140165106B0
:1052E0006206730650F40C191D092E093F09EB8163
:1052F000FC810083118322833383481659066A0692
:105300007B0680F4EF85F88920813181B901640F33
:10531000751F8C199D09AE09BF09FB01808391831C
:10532000A283B383FFEF8F1A9F0AAF0ABF0A3ECF53
:10533000D10197968C9181FD15C08BE493E09F93EA
:105340008F933F922F920E944009B22EC32ED42EEB
:10535000E52EF62E172F8B8399830F900F900F90C9
:105360000F900DC08160F10187A3B12CC12CD12C0D
:10537000E12CF12C10E0F3EFFB830FE70983D1015F
:1053800098968D919C919997019799969C938E935D
:1053900098972B2D3C2D4D2D5E2D6F2D712F8B81D0
:1053A00099816E960FB6F894DEBF0FBECDBFDF9128
:1053B000CF911F910F91FF90EF90DF90CF90BF9012
:1053C000AF909F908F907F906F905F904F903F90A5
:1053D0002F900895D10197968C91979781FFADCF2B
:1053E00080FF0BC0B12CC12CD12CE12CF12C10E092
:1053F000B3EFBB83EFE7E983C2CF896097968C93C5
:10540000F1CFF101C2A8D3A8E4A8F5A8F6A9F98BB9
:10541000D101D796BC91BB83F1010190F081E02DC1
:10542000FA83E983C1010E94A806D10196968C9166
:10543000833889F545E06FE8C1010E94A11939015F
:105440004A015B01898F9D8B04E30E94A9352F3FA0
:10545000374041055105610571058105910561F4EC
:105460009301A401B501898D9D8900E30E94A935AE
:105470002F70293009F4B6CF0B890023B9F0D10180
:1054800096968C91982F9B7F913009F4ABCF8F38F3
:1054900009F47CCC81CC612C712C812C912CA12C19
:1054A000B12CE3EFE98FFFE7FD8BE6CFE981FA81CD
:1054B000EC0DFD1DFA83E983F989FB870B810F87CA
:1054C000D2010C9111961C91119712962C91129762
:1054D00013963C91139714964C91149715965C91E2
:1054E000159716966C91169717967C91CF2EDF84A0
:1054F000E980FA80C1010E943106672B682B692B75
:1055000059F0BA81BF93E981EF93FB81FF93098939
:105510000F9387E593E017CC83019401A501698D72
:105520007D89C1010E94BC012B833D8BF42EE52EA9
:10553000D62E772E682E998B4B855F8569817A816F
:10554000C1010E94D60A49015A01C62ED2010C910E
:1055500011961C91119712962C91129713963C91CB
:10556000139714964C91149715965C91159716966F
:105570006C9116971796EC91B989BF936F927F92B1
:10558000DF92EF92FF92FD89FF93AB81AF93D72E0D
:105590007C017E2FC1010E946A0AB22EC32ED42E36
:1055A000E52EF62E172F8B83998304E30E94A935ED
:1055B0000FB6F894DEBF0FBECDBF2F3F3740410579
:1055C0005105610571058105910509F058CF2B2D15
:1055D0003C2D4D2D5E2D6F2D712F8B81998100E318
:1055E0000E94A9352F70293009F049CFC8CEC101DA
:1055F0000E94A806863009F0CFCB41E067E0C101E8
:105600000E94A119D1019696EC91E73009F0C4CB24
:10561000F101F7A1F983F170AF2E89019A01AB0175
:10562000BC01C1010E947103082F811105C0E981ED
:10563000E160D1019796EC93C1010E94A32DB22E97
:10564000C32ED42EE52EF62E172F8B8399830111AE
:1056500009C0A11007C0D10197968C9197978E7FB2
:1056600097968C93C1010E94A806F10146A557A503
:1056700060A971A946A857A860AC71AC4419550936
:105680006609770946A757A760AB71AB8B3309F062
:1056900076CEC1010E94A806002321F0F10187A166
:1056A000816087A3C1010E94A32DB22EC32ED42EE8
:1056B000E52EF62E172F8B839983002309F45FCEF6
:1056C000A1105DCED10197968C9197978E7F97967A
:1056D0008C9355CEF10167A160956170C1010E9464
:1056E000A92CB22EC32ED42EE52EF62E172F8B8387
:1056F000998345CED1019E96CD90DD90ED90FC90A2
:10570000D197D6968D909D90AD90BC90D997C101C0
:105710000E94A806863009F03FCB41E067E0C10156
:105720000E94A119D1019696EC91E73009F034CB93
:10573000F10157A0F52DF1704F2E89019A01AB01AF
:10574000BC01C1010E9471038983411008C08823F4
:1057500009F442C082E08529D10197968C93C1015A
:105760000E94A32D3901142F5B83B62FA72FF82F8A
:10577000E92F411033C004E30E94A9352F3F374081
:1057800041055105610571058105910569F4930194
:10579000412F5B816B2F7A2F8F2F9E2F00E30E946A
:1057A000A9352F702930D1F029812223B9F0D101F8
:1057B00097968C9183FB882780F991E08927F101E6
:1057C00057A280FF0FCEC818D908EA08FB08C6A662
:1057D000D7A6E0AAF1AA06CE83E0BDCF80E0EFCF46
:1057E000D1019796BC91B9838B2F857019F48FE600
:1057F00093E0A5CDC1010E94A806853009F4F2CD41
:10580000F10186A597A5A0A9B1A946A957A960ADA0
:1058100071AD841B950BA60BB70B86A797A7A0AB02
:10582000B1AB45E065E0C1010E94A119098100FD0D
:1058300010C0D1019A96CD90DD90ED90FC909D978F
:10584000F101C6A6D7A6E0AAF1AAE7A1E061979662
:10585000EC9389019A01AB01BC01C1010E94BC011A
:1058600040CF4F925F926F927F928F929F92AF92B2
:10587000BF92CF92DF92EF92FF920F931F93CF933D
:10588000DF93EC011EA2798368832AA73BA74CA76C
:105890005DA71EA61FA618AA19AA812C912CA12CBF
:1058A000B12CC12CD12C83EFE82E9FE7F92E8EA1CD
:1058B0008130D1F09401A501B601C70104E30E9433
:1058C000A9352F3F37404105510561057105810517
:1058D0009105F9F49401A501B601C70100E30E9406
:1058E000A9352F702930A9F49401A501B601C7018B
:1058F000DF91CF911F910F91FF90EF90DF90CF90AC
:10590000BF90AF909F908F907F906F905F904F90DF
:1059100008954AA45BA46CA47DA40EA51FA528A984
:1059200039A9B301A201888199810E9409026EA759
:105930007FA788AB99AB6415750586059705A0F61A
:1059400065E0CE010E94362649015A016B017C01B7
:10595000AECF2F923F924F925F926F927F928F9233
:105960009F92AF92BF92CF92DF92EF92FF920F93EE
:105970001F93CF93DF93CDB7DEB72B970FB6F89475
:10598000DEBF0FBECDBF9B878A8769838C01005B1A
:105990001F4FD8012D913D914D915C912A833B83FE
:1059A0004C835D8361110E94350AD8012D913D9190
:1059B0004D915C912E833F8348875987812C912C90
:1059C000A12CB12CC12CD12C83EFE82E9FE7F92E0E
:1059D000AA85BB859E960D911D912D913C91D197E5
:1059E0009A962D903D904D905C909D9796968C91B7
:1059F000877F8130F1F0EA85FB8560807180B2019C
:105A0000A101C3010E940902AA85BB859E966D93E0
:105A10007D938D939C93D1976215730584059505AD
:105A200008F072C0660D771DFB0180818D3709F08B
:105A30006BC0EA85FB8586A597A5A0A9B1A98215AB
:105A40009305A405B50508F469C0F981FF2319F190
:105A5000EA85FB85EE5BFF4F408151816281738156
:105A60004C5F5F4F6F4F7F4FAA85BB85A65BBF4FD3
:105A70000D90BC91A02DA40FB51F0D911D912D91DE
:105A80003C9100831183228333831482158280EF3B
:105A900086838FE787832A853B85205B3F4F3B8743
:105AA0002A87F90180819181A281B3812E813F8172
:105AB0004885598582179307A407B50741F48A8161
:105AC0009B81AC81BD8180839183A283B383940148
:105AD000A501B601C7012B960FB6F894DEBF0FBE25
:105AE000CDBFDF91CF911F910F91FF90EF90DF908D
:105AF000CF90BF90AF909F908F907F906F905F906E
:105B00004F903F902F90089569E08A859B850E9471
:105B1000362649015A016B017C015ACFEA85FB8583
:105B200020813181F901E80FF91F20812D3709F01B
:105B30008CCF0196A11DB11DEA85FB8586A797A78D
:105B4000A0ABB1AB82CF8F929F92AF92BF92EF92F8
:105B5000FF920F931F93CF93DF93EC018AA49BA432
:105B6000ACA4BDA4E880F9800EA51FA528A939A979
:105B7000B501A401C7010E9409026EA77FA788ABE7
:105B800099AB681579058A059B05F0F4F701E60FD6
:105B9000F71F20812B37C1F46F5F7F4F8F4F9F4FCF
:105BA0006EA77FA788AB99AB6FA160956170CE019E
:105BB000DF91CF911F910F91FF90EF90BF90AF9029
:105BC0009F908F900C94A92C65E0CE010E94362600
:105BD00089019A01AB01BC01CE010E94BC01DF9199
:105BE000CF911F910F91FF90EF90BF90AF909F903A
:105BF0008F9008952F923F924F925F926F927F9273
:105C00008F929F92AF92BF92CF92DF92EF92FF92CC
:105C10000F931F93CF93DF93CDB7DEB760970FB687
:105C2000F894DEBF0FBECDBF6C01362E27013801C0
:105C300049015A018DA18C879EA19D87AFA1AE8796
:105C400088A58F8799A5988B2AA4EBA4FCA48BE048
:105C5000EEE3F1E0DE01119601900D928A95E1F7F5
:105C600082019301A401B501C6010E94BC01EDE7C8
:105C7000FFEFEC0FFD1FE30DF11DFF92EF922F924E
:105C8000A889AF93AF85AF93AE85AF93AD85AF9342
:105C9000AC85AF9379018A019B01AC016081C6019B
:105CA0000E94810B7901F601E65BFF4F93018201AF
:105CB0000C7F085F1F4F2F4F3F4FA081B181A00F76
:105CC000B11FEC921196FC92119712964C93129779
:105CD00013965C93139714966C93149715967C9374
:105CE000159716968C93169717969C930FB6F89463
:105CF000DEBF0FBECDBF9201A301B401C501609606
:105D00000FB6F894DEBF0FBECDBFDF91CF911F91CC
:105D10000F91FF90EF90DF90CF90BF90AF909F904A
:105D20008F907F906F905F904F903F902F9008954D
:105D30001F920F920FB60F9211242F933F938F93C0
:105D40009F93AF93BF9380910D0490910E04A09107
:105D50000F04B091100430910C0423E0230F2D3771
:105D600058F50196A11DB11D20930C0480930D04DC
:105D700090930E04A0930F04B0931004809111042B
:105D800090911204A0911304B09114040196A11DE6
:105D9000B11D8093110490931204A0931304B09347
:105DA0001404BF91AF919F918F913F912F910F90CC
:105DB0000FBE0F901F90189526E8230F0296A11D85
:105DC000B11DD2CFCF93DF93CDB7DEB728970FB6F3
:105DD000F894DEBF0FBECDBF789484B5826084BDD9
:105DE00084B5816084BD85B5826085BD85B58160DF
:105DF00085BD80916E00816080936E00109281005D
:105E00008091810082608093810080918100816017
:105E100080938100809180008160809380008091D8
:105E2000B10084608093B1008091B0008160809364
:105E3000B00080917A00846080937A0080917A002B
:105E4000826080937A0080917A00816080937A00EA
:105E500080917A00806880937A001092C100E5E119
:105E6000F4E08CE291E0DF019C011D922150304072
:105E7000E1F78DE694E09093600480935F0484EDF5
:105E800090E0A0E0B0E08093610490936204A0935E
:105E90006304B09364041D821E821F82188604E08E
:105EA00010E09E012B5F3F4F40E050E0BA01CF0170
:105EB0000E94720920935704309358044093590468
:105EC00050935A0460935B0470935C0480935D0468
:105ED00090935E0419821A821B821C829E012F5F9E
:105EE0003F4F40E050E0BA0185E194E00E94720922
:105EF00039014A015B016C01DF928F93BF926F936E
:105F00009F924F937F922F938BE7E82E83E0F82E9A
:105F100000E010E020E030E040E050E060EF7FE79C
:105F200085E194E00E94270B40E853E067E871E0C8
:105F300085E194E00E94E90A9F938F937F936F938A
:105F40005F934F933F932F9393E8E92E93E0F92EBD
:105F500020E030E040E050E060EF7FE785E194E052
:105F60000E94270B49E853E06FEF70E085E194E071
:105F70000E94E90A9F938F937F936F935F934F9350
:105F80003F932F932DE8E22E23E0F22E830194011C
:105F9000A501B60185E194E00E94270B49E853E092
:105FA0006BE371E085E194E00E94E90A9F938F938F
:105FB0007F936F935F934F933F932F9332E9E32E39
:105FC00033E0F32E9401A501B60185E194E00E942F
:105FD000270B0FB6F894DEBF0FBECDBF22E730E02F
:105FE00040E050E068E973E085E194E00E94312CE4
:105FF00000E010E001151105E9F30E940000FACF5E
:10600000B0E0A0E0E6E0F0E30C94A9325C017B0193
:106010006115710519F0DB018D939C9385010F5F6C
:106020001F4FF501D0818D2F90E00E9450316C01FF
:10603000892BB9F5DD32B9F50F5F1F4FD5011196E8
:10604000DC91C1E05801F1E0AF1AB10843E050E043
:1060500062EF70E0C5010E945931892B69F5680132
:1060600082E0C80ED11C45E050E06DEE70E0C60144
:106070000E945931892B21F4680197E0C90ED11C87
:10608000E114F10419F0D701CD92DC9260E070E0E8
:1060900080E89FEFC111FFC060E070E080E89FE7FB
:1060A000FAC05801BBCFDB3229F485010E5F1F4FC8
:1060B000F501D181C0E0C6CF43E050E06AEE70E068
:1060C000C5010E945931892BE9F0F80110E000E088
:1060D00020E030E0A9015F01B0ED8B2E8D0E89E04C
:1060E0008815C8F19C2E689491F88C2F8870C2FF97
:1060F00016C0811102C00F5F1F4F3196D501DC9190
:10610000C92DE9CFE114F10429F00E5F1F4FF7010B
:106110001183008360E070E080EC9FE7BCC08823BF
:1061200011F001501109A5E0B0E00E9498329B01E6
:10613000AC01220F331F441F551F280D311D411D77
:10614000511D283999E93907490799E15907A8F2FA
:10615000C6609C2ED2CFAEEF8A1206C0C3FD3CC0F3
:106160009C2E689493F8C9CFDF7DD534A9F5808142
:106170008D3239F4C061DF011296818162E070E0F6
:1061800006C0DF018B32C1F3119661E070E08053ED
:106190005D01A61AB70A8A30F8F4E0E8CE16ECE002
:1061A000DE065CF4B601660F771F660F771FC60E1A
:1061B000D71ECC0CDD1CC80ED11C5D01FFEFAF1A41
:1061C000BF0A8C9180538A30A8F1C4FF03C0D194D8
:1061D000C194D1080C0D1D1DC1FF09C0E114F104CB
:1061E00031F081E0A81AB108D701AD92BC92CA0182
:1061F000B9010E947631C370C33009F490584B0145
:106200005C0120E030E0A9010E947131882309F48B
:1062100040C0C1E2D1E017FF05C0119501951109F9
:10622000C9E0D1E06E01B8E1CB1AD10880E2E82ED6
:10623000F12C0FC0D501B1CFFE01259135914591CB
:1062400054910E191F09C501B4010E94D7314B01A9
:106250005C01D501C4010E151F0574F72497F59450
:10626000E794CC16DD06A9F78A2F880F8B2F881F9D
:106270008F3F49F020E030E0A901C501B4010E9440
:106280007131811106C082E290E0909342058093C3
:106290004105C501B401CDB7DEB7ECE00C94C532C1
:1062A00091110C944432803219F089508550C8F70E
:1062B0000895FB01DC014150504088F08D918134FC
:1062C0001CF08B350CF4805E659161341CF06B35ED
:1062D0000CF4605E861B611171F3990B0895881BA5
:1062E000FCCF0E94B33108F481E00895E89409C01E
:1062F00097FB3EF490958095709561957F4F8F4FF9
:106300009F4F9923A9F0F92F96E9BB279395F6950E
:10631000879577956795B795F111F8CFFAF4BB0F8C
:1063200011F460FF1BC06F5F7F4F8F4F9F4F16C0F0
:10633000882311F096E911C0772321F09EE8872F7A
:10634000762F05C0662371F096E8862F70E060E036
:106350002AF09A95660F771F881FDAF7880F9695AF
:10636000879597F90895990F0008550FAA0BE0E853
:10637000FEEF16161706E807F907C0F01216130607
:10638000E407F50798F0621B730B840B950B39F447
:106390000A2661F0232B242B252B21F408950A26AD
:1063A00009F4A140A6958FEF811D811D08950E94DB
:1063B000EA310C945E320E94503238F00E9457321B
:1063C00020F0952311F00C9447320C944D32112497
:1063D0000C9492320E946F3270F3959FC1F3950F27
:1063E00050E0551F629FF001729FBB27F00DB11D59
:1063F000639FAA27F00DB11DAA1F649F6627B00DE9
:10640000A11D661F829F2227B00DA11D621F739FD1
:10641000B00DA11D621F839FA00D611D221F749FDF
:106420003327A00D611D231F849F600D211D822F26
:10643000762F6A2F11249F5750409AF0F1F088234D
:106440004AF0EE0FFF1FBB1F661F771F881F91507A
:106450005040A9F79E3F510580F00C9447320C94B0
:1064600092325F3FE4F3983ED4F386957795679533
:10647000B795F795E7959F5FC1F7FE2B880F911DA4
:106480009695879597F9089599278827089597F9FC
:106490009F6780E870E060E008959FEF80EC0895CA
:1064A00000240A94161617061806090608950024F3
:1064B0000A9412161306140605060895092E03946D
:1064C000000C11F4882352F0BB0F40F4BF2B11F4E1
:1064D00060FF04C06F5F7F4F8F4F9F4F089557FD40
:1064E0009058440F551F59F05F3F71F04795880F42
:1064F00097FB991F61F09F3F79F0879508951216D9
:1065000013061406551FF2CF4695F1DF08C0161684
:1065100017061806991FF1CF869571056105089435
:106520000895E894BB2766277727CB0197F908954C
:106530000E94DA32A59F900DB49F900DA49F800D0C
:10654000911D112408952F923F924F925F926F9266
:106550007F928F929F92AF92BF92CF92DF92EF92F3
:10656000FF920F931F93CF93DF93CDB7DEB7CA1B74
:10657000DB0B0FB6F894DEBF0FBECDBF09942A889F
:10658000398848885F846E847D848C849B84AA8447
:10659000B984C884DF80EE80FD800C811B81AA81D4
:1065A000B981CE0FD11D0FB6F894DEBF0FBECDBF9F
:1065B000ED010895A29FB001B39FC001A39F700D8C
:1065C000811D1124911DB29F700D811D1124911DFB
:1065D00008955058BB27AA270E9401330C945E32BD
:1065E0000E94503238F00E94573220F039F49F3F19
:1065F00019F426F40C944D320EF4E095E7FB0C945C
:106600004732E92F0E946F3258F3BA1762077307B7
:106610008407950720F079F4A6F50C9491320EF4D6
:10662000E0950B2EBA2FA02D0B01B90190010C01A2
:10663000CA01A0011124FF27591B99F0593F50F4BA
:10664000503E68F11A16F040A22F232F342F442712
:10665000585FF3CF469537952795A795F04053950A
:10666000C9F77EF41F16BA0B620B730B840BBAF0DA
:106670009150A1F0FF0FBB1F661F771F881FC2F745
:106680000EC0BA0F621F731F841F48F48795779559
:106690006795B795F7959E3F08F0B0CF9395880F13
:1066A00008F09927EE0F9795879508950E946A3311
:1066B0000C945E320E94573258F00E94503240F0E3
:1066C00029F45F3F29F00C94473251110C94923217
:1066D0000C944D320E946F3268F39923B1F3552325
:1066E00091F3951B550BBB27AA27621773078407E5
:1066F00038F09F5F5F4F220F331F441FAA1FA9F37B
:1067000035D00E2E3AF0E0E832D091505040E69568
:10671000001CCAF72BD0FE2F29D0660F771F881FC9
:10672000BB1F261737074807AB07B0E809F0BB0BBC
:10673000802DBF01FF2793585F4F3AF09E3F5105D0
:1067400078F00C9447320C9492325F3FE4F3983E19
:10675000D4F3869577956795B795F7959F5FC9F7B9
:10676000880F911D9695879597F90895E1E0660F3A
:10677000771F881FBB1F621773078407BA0720F0B3
:10678000621B730B840BBA0BEE1F88F7E09508951C
:106790000E94CF336894B1110C94923208950E94F4
:1067A000773288F09F5798F0B92F9927B751B0F0FA
:1067B000E1F0660F771F881F991F1AF0BA95C9F785
:1067C00014C0B13091F00E949132B1E008950C9460
:1067D0009132672F782F8827B85F39F0B93FCCF313
:1067E000869577956795B395D9F73EF49095809502
:1067F000709561957F4F8F4F9F4F08950E94B331E1
:1068000008F48FEF0895FA01EE0FFF1F309621056F
:106810003105A1F16115710561F48038BFE39B0773
:1068200049F168949038810561F08038BFEF9B078B
:1068300041F099234AF5FF3FE1053105210519F1A2
:10684000E8940894E795D901AA2329F4AB2FBE2F29
:10685000F85FD0F310C0FF5F70F4A695E0F7F7394A
:1068600050F019F0FF3A38F49F779F930DD00F90B6
:1068700007FC9058089546F00C944D3260E070E0AB
:1068800080E89FE308954FE79F775F934F933F938F
:106890002F930E94FE342F913F914F915F910E9460
:1068A000D7310C945B3429F416F00C9447320C94D5
:1068B00091320C944D320E947732A8F39638A0F7AB
:1068C00007F80F92E8942BE33AEA48EB5FE70E945F
:1068D000ED310F920F920F924DB75EB70F920E945B
:1068E0004635E8E6F0E00E948D344F915F91EF91DC
:1068F000FF91E595EE1FFF1F49F0FE57E068442722
:10690000EE0F441FFA95E1F74195550B0E94C034F4
:106910000F9007FE0C94B4340895DF93CF931F9328
:106920000F93FF92EF92DF927B018C01689406C077
:10693000DA2EEF010E94EA31FE01E894A59125913B
:10694000359145915591A6F3EF010E940133FE0167
:106950009701A801DA9469F7DF90EF90FF900F910B
:106960001F91CF91DF9108959B01AC0160E070E031
:1069700080E89FE30C9456330C9447320C947A359C
:106980000E947732D8F39923C9F3940F511DA3F3D2
:106990009150504094F059F0882332F0660F771FE1
:1069A000881F91505040C1F79E3F51052CF7880F2A
:1069B000911D9695879597F908955F3FACF0983EA5
:1069C0009CF0BB27869577956795B79508F4B160DD
:1069D0009395C1F7BB0F58F711F460FFE8CF6F5FD5
:1069E0007F4F8F4F9F4FE3CF0C94923216F00C9451
:1069F0007A350C944D3268940C9447320E94773269
:106A0000A8F39923C1F3AEF3DF93CF931F930F93B2
:106A1000FF92C92FDD2788232AF02197660F771F61
:106A2000881FDAF720E030E040E85FEB9FE3883929
:106A300020F0803E38F021968F770E94EA32E0E91C
:106A4000F0E004C00E94EA32EDEBF0E00E948D34E9
:106A50008B01BE01EC01FB2E6F5771097595771FF5
:106A6000880B990B0E94783128E132E741E35FE31C
:106A70000E94EA31AF2D9801AE01FF900F911F9156
:106A8000CF91DF910E9401330C945E32FA01DC0158
:106A9000AA0FBB1F9B01AC01BF5728F42227332745
:106AA0004427507820C0B75190F4AB2F002446956E
:106AB00037952795011CA395D2F3002071F0220F82
:106AC000331F441FB395DAF30ED00C94E9326130D2
:106AD0007105A0E88A07B94630F49B01AC0166272E
:106AE000772788279078309621F02083318342835E
:106AF000538308959F3F31F0915020F48795779507
:106B00006795B795880F911D9695879597F9089584
:106B1000EE0FFF1F0590F491E02D0994002E083030
:106B200090F0982F872F762F652F542F432F322FD9
:106B300022270850F4CF220F331F441F551F661F12
:106B4000771F881F991F0A95B2F7002D089597FDAA
:106B50001094002E083098F00850232F342F452F22
:106B6000562F672F782F892F912DF4CF1594979555
:106B700087957795679557954795379527950A9502
:106B8000AAF71124002D0895FB01DC0104C08D91AA
:106B90000190801921F441505040C8F7881B990B8F
:106BA00008956817790768F4FB01DC01E40FF51F0D
:106BB000A40FB51F02C002900E9241505040D8F76A
:106BC00008950C942B38FB01DC0101900D920020FC
:106BD000E1F70895AEE0B0E0E0EFF5E30C94B132F8
:106BE0000D891E898F89988D26E02C831A8309834D
:106BF00097FF02C080E090E801979E838D83AE01ED
:106C0000455E5F4F698D7A8DCE0101960E944636B2
:106C10004D815E8157FD0AC02F8138854217530789
:106C20000CF49A01020F131FF80110822E96E4E073
:106C30000C94CD32AEE0B0E0E0E2F6E30C94B13279
:106C40008C01FA0186E08C831A83098377FF02C0E6
:106C500060E070E8615071097E836D83A901BF0116
:106C6000CE0101960E9446364D815E8157FD0AC0D5
:106C70002F813885421753070CF49A01020F131F16
:106C8000F80110822E96E4E00C94CD32ABE0B0E037
:106C9000ECE4F6E30C94A3327C013B018A01FC0195
:106CA00017821682838181FFC8C1CE0101965C01E3
:106CB000F7019381F30193FD859193FF81913F014A
:106CC000882309F453C1853239F493FD859193FFEC
:106CD00081913F01853229F4B70190E00E943F384D
:106CE000E7CF912C212C312CFFE1F31538F08B32BA
:106CF00011F190F4803209F1833229F137FC3CC064
:106D000020ED280F2A3050F536FE20C08AE0989EEC
:106D1000200D1124922E06C08D3291F0803371F730
:106D2000689430F8F30193FD859193FF81913F01C1
:106D30008111DACF21C0689431F8689432F8F2CF2B
:106D4000689433F8EFCF689434F8ECCFEAE02E9EE5
:106D5000200D1124222E689435F8E4CF8E3229F4C8
:106D600036FC04C1689436F8DDCF8C3619F468948B
:106D700037F8D8CF8836B1F2982F9F7D955493304D
:106D8000E0F08336A1F18337C1F1833509F063C0A8
:106D90002801F2E04F0E511CF801C080D180692D0E
:106DA00070E036FC02C06FEF7FEFC6010E94203812
:106DB0004C01689437F882010AC00C5F1F4FFFE353
:106DC000F98388248394912C6501E89437F833FE85
:106DD0002DC0522C8114910471F5552009F468CF0F
:106DE000B70180E290E00E943F385A94F6CFF80154
:106DF000808189830E5F1F4FE4CF2801F2E04F0EA0
:106E0000511CF801C080D180692D70E036FC02C0B1
:106E10006FEF7FEFC6010E9434384C018201D5CF5D
:106E2000B70180E290E00E943F382A9428141904A8
:106E300009F0B0F7CECFF60137FC859137FE81918E
:106E40006F01B70190E00E943F3851105A94F1E071
:106E50008F1A9108BFCF843619F0893609F077C0B0
:106E6000F80137FE6BC060817181828193810C5F74
:106E70001F4FF32DFF763F2E97FF09C09095809509
:106E8000709561957F4F8F4F9F4F689437F82AE038
:106E900030E0A5010E946F38C82ECA188C2C432CF4
:106EA00036FE0CC0E89440F8C91440F434FE05C026
:106EB00032FC03C0F32DFE7E4F2E892C44FE95C07C
:106EC000FE01EC0DF11D8081803309F087C0242D77
:106ED000297E422E842D8870582E43FC95C040FE9A
:106EE0008FC09C2C821418F42C0C922C981844FE01
:106EF00091C0B70180E390E00E943F3842FE09C094
:106F000088E790E041FE02C088E590E0B7010E946A
:106F10003F38C91408F48AC0CA94D12C9FEFC91A0B
:106F2000D90ACA0CDB1CF60182916F01B70190E00F
:106F30000E943F38AC14BD04B1F74FCF608171811E
:106F4000072E000C880B990B0E5F1F4F92CFD32C8E
:106F5000E894D4F82AE030E0853739F1232D297FF1
:106F6000D22E8F3601F148F48835A9F0F7018681D9
:106F700097812B96E2E10C94BF32803749F0883735
:106F8000A9F7D4FE02C06894D2F820E130E00DC029
:106F90006894D4F8F6CF34FE03C0822F8660D82ED2
:106FA00020E132E002C028E030E0F801D7FE0FC057
:106FB00060817181828193810C5F1F4FA5010E94C6
:106FC0006F38C82ECA183D2CE89437F867CF608117
:106FD000718190E080E00E5F1F4FF0CF42FC02C055
:106FE000839478CF8394839475CF842D867809F425
:106FF00071CFF6CFB70180E290E00E943F388394D2
:107000008214C0F3512C73CF522C5818821408F4F8
:107010006ECFF8CF842D867809F47BCF8BE241FECA
:1070200080E247FC8DE2B70190E071CFB70180E3C9
:1070300090E00E943F389A946CCF8FEF9FEF99CFEA
:10704000FC010590615070400110D8F78095909533
:107050008E0F9F1F0895FB01DC0102C001900D926D
:1070600041505040D8F70895FC01615070400190A4
:107070000110D8F7809590958E0F9F1F08950F935C
:107080001F93CF93DF93182F092FEB018B8181FD85
:1070900009C01FEF0FEF812F902FDF91CF911F912C
:1070A0000F91089582FF14C02E813F818C819D81B4
:1070B000281739073CF4E881F981CF0101969983BB
:1070C000888310838E819F8101969F838E83E3CF77
:1070D000E885F985812F0995892BA1F3DACFFA018B
:1070E000AA27283051F1203181F1E8946F936E7F07
:1070F0006E5F7F4F8F4F9F4FAF4FB1E03ED0B4E0F8
:107100003CD0670F781F891F9A1FA11D680F791F38
:107110008A1F911DA11D6A0F711D811D911DA11D49
:1071200020D009F468943F912AE0269F1124301959
:10713000305D3193DEF6CF010895462F4770405DF4
:107140004193B3E00FD0C9F7F6CF462F4F70405DA3
:107150004A3318F0495D31FD4052419302D0A9F7FE
:10716000EACFB4E0A6959795879577956795BA95F8
:10717000C9F700976105710508959B01AC010A2EBE
:1071800006945795479537952795BA95C9F7620F95
:0E719000731F841F951FA01D0895F894FFCF54
:10719E00B202B902BE02D801AA01C502CC02250272
:1071AE00D4021313111110101010100F0E0E0E0D1D
:1071BE000D0C0C0C0B0B0B0B0A0A09080706050429
:1071CE0004030303030303030303030303017172A5
:1071DE006E6F707374757C7D7E627265616B006319
:1071EE006C6173730063617365006361746368003F
:1071FE00636F6E737400636F6E74696E7565006491
:10720E006F0064656661756C7400656C736500660D
:10721E006F720066696E616C6C790066616C736585
:10722E0000696600696E00696E7374616E63656FE6
:10723E0066006C6574006E6577006E756C6C00721E
:10724E00657475726E007377697463680074727911
:10725E000074686973007468726F77007472756574
:10726E0000747970656F6600756E646566696E652B
:10727E00640076617200766F6964007768696C6588
:10728E000077697468007969656C64004552524FE5
:10729E00523A20006F6F6D002573402578003F3FF6
:1072AE0000626164206C68730063616C6C696E6768
:1072BE00206E6F6E2D66756E6374696F6E006261FF
:1072CE00642063616C6C00626164206172672025CA
:1072DE00640062616420736967006E756D2061726F
:1072EE006773006666690062616420737472206F52
:1072FE00700074797065206D69736D6174636800D8
:10730E00646976206279207A65726F006964656EB1
:10731E0074206578706563746564006C656E67745F
:10732E0068006C6F6F6B757020696E206E6F6E2DBE
:10733E006F626A00756E6B6E6F776E206F702025B0
:10734E0064006F626A6563740070726F70007374AC
:10735E0072696E67006E756D62657200626F6F6C3A
:10736E0065616E006E616E0070617273652065728C
:10737E00726F72006578707220746F6F206465652D
:10738E00700027252E2A7327206E6F7420666F7566
:10739E006E640062616420737472206C697465722D
:1073AE00616C00756E657870656374656420746FCA
:1073BE006B656E2027252E2A732700626164206577
:1073CE007870720027252E2A7327206E6F7420691D
:1073DE006D706C656D656E746564006E6F7420699A
:1073EE006E206C6F6F700027252E2A732720616C1C
:1073FE007265616479206465636C61726564006EA8
:10740E006F7420696E2066756E63006770696F0019
:10741E0076690064656C617900766969006D6F64E8
:10742E0065007772697465006C65742070696E20F2
:10743E003D2031333B6770696F2E6D6F6465287028
:10744E00696E2C2031293B7768696C65202874722F
:10745E00756529207B202064656C61792833303076
:10746E00293B20206770696F2E77726974652870CA
:10747E00696E2C2031293B202064656C617928339C
:10748E003030293B20206770696F2E7772697465E2
:0C749E002870696E2C2030293B7D000016
:00000001FF
